{
	"MilestoneEscrowContract.sol": {
		"MilestoneEscrowContract": {
			"abi": [
				{
					"inputs": [],
					"stateMutability": "nonpayable",
					"type": "constructor"
				},
				{
					"anonymous": false,
					"inputs": [
						{
							"indexed": true,
							"internalType": "address",
							"name": "campaignContract",
							"type": "address"
						}
					],
					"name": "CampaignContractUpdated",
					"type": "event"
				},
				{
					"anonymous": false,
					"inputs": [
						{
							"indexed": true,
							"internalType": "uint256",
							"name": "campaignId",
							"type": "uint256"
						},
						{
							"indexed": false,
							"internalType": "uint256",
							"name": "amount",
							"type": "uint256"
						}
					],
					"name": "FundsDeposited",
					"type": "event"
				},
				{
					"anonymous": false,
					"inputs": [
						{
							"indexed": true,
							"internalType": "uint256",
							"name": "campaignId",
							"type": "uint256"
						},
						{
							"indexed": true,
							"internalType": "address",
							"name": "charity",
							"type": "address"
						},
						{
							"indexed": false,
							"internalType": "uint256",
							"name": "amount",
							"type": "uint256"
						}
					],
					"name": "FundsReleased",
					"type": "event"
				},
				{
					"stateMutability": "payable",
					"type": "fallback"
				},
				{
					"inputs": [],
					"name": "admin",
					"outputs": [
						{
							"internalType": "address",
							"name": "",
							"type": "address"
						}
					],
					"stateMutability": "view",
					"type": "function"
				},
				{
					"inputs": [
						{
							"internalType": "uint256",
							"name": "campaignId",
							"type": "uint256"
						}
					],
					"name": "depositFunds",
					"outputs": [],
					"stateMutability": "payable",
					"type": "function"
				},
				{
					"inputs": [],
					"name": "getCampaignContractAddress",
					"outputs": [
						{
							"internalType": "address",
							"name": "",
							"type": "address"
						}
					],
					"stateMutability": "view",
					"type": "function"
				},
				{
					"inputs": [
						{
							"internalType": "uint256",
							"name": "campaignId",
							"type": "uint256"
						}
					],
					"name": "getEscrowBalance",
					"outputs": [
						{
							"internalType": "uint256",
							"name": "",
							"type": "uint256"
						}
					],
					"stateMutability": "view",
					"type": "function"
				},
				{
					"inputs": [
						{
							"internalType": "uint256",
							"name": "campaignId",
							"type": "uint256"
						}
					],
					"name": "isReleased",
					"outputs": [
						{
							"internalType": "bool",
							"name": "",
							"type": "bool"
						}
					],
					"stateMutability": "view",
					"type": "function"
				},
				{
					"inputs": [
						{
							"internalType": "uint256",
							"name": "campaignId",
							"type": "uint256"
						},
						{
							"internalType": "address payable",
							"name": "charity",
							"type": "address"
						}
					],
					"name": "releaseFunds",
					"outputs": [],
					"stateMutability": "nonpayable",
					"type": "function"
				},
				{
					"inputs": [
						{
							"internalType": "address",
							"name": "_campaignContract",
							"type": "address"
						}
					],
					"name": "setCampaignContract",
					"outputs": [],
					"stateMutability": "nonpayable",
					"type": "function"
				},
				{
					"stateMutability": "payable",
					"type": "receive"
				}
			],
			"devdoc": {
				"details": "Holds donated ETH for donation campaigns until the campaign management contract tells it to release funds after proof approval. This contract only manages money. It does not store campaign descriptions, proof details, verifier decisions, or donor records.",
				"kind": "dev",
				"methods": {
					"depositFunds(uint256)": {
						"details": "Deposits ETH into escrow for a specific campaign. Only the trusted CampaignManagementContract can call this function."
					},
					"getCampaignContractAddress()": {
						"details": "Returns the trusted CampaignManagementContract address."
					},
					"getEscrowBalance(uint256)": {
						"details": "Returns the ETH currently held for a campaign."
					},
					"isReleased(uint256)": {
						"details": "Returns whether funds for a campaign have already been released."
					},
					"releaseFunds(uint256,address)": {
						"details": "Releases all escrowed ETH for a campaign to the charity address. Uses checks-effects-interactions to prevent re-entrancy issues."
					},
					"setCampaignContract(address)": {
						"details": "Sets the trusted CampaignManagementContract address. Only the escrow admin can set or update this address."
					}
				},
				"title": "MilestoneEscrowContract",
				"version": 1
			},
			"evm": {
				"assembly": "    /* \"MilestoneEscrowContract.sol\":376:3875  contract MilestoneEscrowContract {... */\n  mstore(0x40, 0x80)\n    /* \"MilestoneEscrowContract.sol\":1092:1141  constructor() {... */\n  callvalue\n  dup1\n  iszero\n  tag_1\n  jumpi\n  revert(0x00, 0x00)\ntag_1:\n  pop\n    /* \"MilestoneEscrowContract.sol\":1124:1134  msg.sender */\n  caller\n    /* \"MilestoneEscrowContract.sol\":1116:1121  admin */\n  0x00\n  0x00\n    /* \"MilestoneEscrowContract.sol\":1116:1134  admin = msg.sender */\n  0x0100\n  exp\n  dup2\n  sload\n  dup2\n  0xffffffffffffffffffffffffffffffffffffffff\n  mul\n  not\n  and\n  swap1\n  dup4\n  0xffffffffffffffffffffffffffffffffffffffff\n  and\n  mul\n  or\n  swap1\n  sstore\n  pop\n    /* \"MilestoneEscrowContract.sol\":376:3875  contract MilestoneEscrowContract {... */\n  dataSize(sub_0)\n  dup1\n  dataOffset(sub_0)\n  0x00\n  codecopy\n  0x00\n  return\nstop\n\nsub_0: assembly {\n        /* \"MilestoneEscrowContract.sol\":376:3875  contract MilestoneEscrowContract {... */\n      mstore(0x40, 0x80)\n      jumpi(tag_1, lt(calldatasize, 0x04))\n      shr(0xe0, calldataload(0x00))\n      dup1\n      0x73962b26\n      gt\n      tag_10\n      jumpi\n      dup1\n      0x73962b26\n      eq\n      tag_6\n      jumpi\n      dup1\n      0x8e98f44d\n      eq\n      tag_7\n      jumpi\n      dup1\n      0xf851a440\n      eq\n      tag_8\n      jumpi\n      dup1\n      0xfce60903\n      eq\n      tag_9\n      jumpi\n      jump(tag_2)\n    tag_10:\n      dup1\n      0x1af23a59\n      eq\n      tag_3\n      jumpi\n      dup1\n      0x3b76594d\n      eq\n      tag_4\n      jumpi\n      dup1\n      0x669be2d6\n      eq\n      tag_5\n      jumpi\n      jump(tag_2)\n    tag_1:\n      jumpi(tag_2, calldatasize)\n        /* \"MilestoneEscrowContract.sol\":3657:3713  revert(\"Use depositFunds through the campaign contract\") */\n      mload(0x40)\n      0x08c379a000000000000000000000000000000000000000000000000000000000\n      dup2\n      mstore\n      0x04\n      add\n      tag_13\n      swap1\n      tag_14\n      jump\t// in\n    tag_13:\n      mload(0x40)\n      dup1\n      swap2\n      sub\n      swap1\n      revert\n        /* \"MilestoneEscrowContract.sol\":376:3875  contract MilestoneEscrowContract {... */\n    tag_2:\n        /* \"MilestoneEscrowContract.sol\":3828:3866  revert(\"Invalid escrow contract call\") */\n      mload(0x40)\n      0x08c379a000000000000000000000000000000000000000000000000000000000\n      dup2\n      mstore\n      0x04\n      add\n      tag_17\n      swap1\n      tag_18\n      jump\t// in\n    tag_17:\n      mload(0x40)\n      dup1\n      swap2\n      sub\n      swap1\n      revert\n        /* \"MilestoneEscrowContract.sol\":2249:2891  function releaseFunds(uint256 campaignId, address payable charity) external onlyCampaignContract {... */\n    tag_3:\n      callvalue\n      dup1\n      iszero\n      tag_19\n      jumpi\n      revert(0x00, 0x00)\n    tag_19:\n      pop\n      tag_20\n      0x04\n      dup1\n      calldatasize\n      sub\n      dup2\n      add\n      swap1\n      tag_21\n      swap2\n      swap1\n      tag_22\n      jump\t// in\n    tag_21:\n      tag_23\n      jump\t// in\n    tag_20:\n      stop\n        /* \"MilestoneEscrowContract.sol\":1729:2079  function depositFunds(uint256 campaignId) external payable onlyCampaignContract {... */\n    tag_4:\n      tag_24\n      0x04\n      dup1\n      calldatasize\n      sub\n      dup2\n      add\n      swap1\n      tag_25\n      swap2\n      swap1\n      tag_26\n      jump\t// in\n    tag_25:\n      tag_27\n      jump\t// in\n    tag_24:\n      stop\n        /* \"MilestoneEscrowContract.sol\":1289:1570  function setCampaignContract(address _campaignContract) external onlyAdmin {... */\n    tag_5:\n      callvalue\n      dup1\n      iszero\n      tag_28\n      jumpi\n      revert(0x00, 0x00)\n    tag_28:\n      pop\n      tag_29\n      0x04\n      dup1\n      calldatasize\n      sub\n      dup2\n      add\n      swap1\n      tag_30\n      swap2\n      swap1\n      tag_31\n      jump\t// in\n    tag_30:\n      tag_32\n      jump\t// in\n    tag_29:\n      stop\n        /* \"MilestoneEscrowContract.sol\":3199:3312  function isReleased(uint256 campaignId) external view returns (bool) {... */\n    tag_6:\n      callvalue\n      dup1\n      iszero\n      tag_33\n      jumpi\n      revert(0x00, 0x00)\n    tag_33:\n      pop\n      tag_34\n      0x04\n      dup1\n      calldatasize\n      sub\n      dup2\n      add\n      swap1\n      tag_35\n      swap2\n      swap1\n      tag_26\n      jump\t// in\n    tag_35:\n      tag_36\n      jump\t// in\n    tag_34:\n      mload(0x40)\n      tag_37\n      swap2\n      swap1\n      tag_38\n      jump\t// in\n    tag_37:\n      mload(0x40)\n      dup1\n      swap2\n      sub\n      swap1\n      return\n        /* \"MilestoneEscrowContract.sol\":3402:3512  function getCampaignContractAddress() external view returns (address) {... */\n    tag_7:\n      callvalue\n      dup1\n      iszero\n      tag_39\n      jumpi\n      revert(0x00, 0x00)\n    tag_39:\n      pop\n      tag_40\n      tag_41\n      jump\t// in\n    tag_40:\n      mload(0x40)\n      tag_42\n      swap2\n      swap1\n      tag_43\n      jump\t// in\n    tag_42:\n      mload(0x40)\n      dup1\n      swap2\n      sub\n      swap1\n      return\n        /* \"MilestoneEscrowContract.sol\":415:435  address public admin */\n    tag_8:\n      callvalue\n      dup1\n      iszero\n      tag_44\n      jumpi\n      revert(0x00, 0x00)\n    tag_44:\n      pop\n      tag_45\n      tag_46\n      jump\t// in\n    tag_45:\n      mload(0x40)\n      tag_47\n      swap2\n      swap1\n      tag_43\n      jump\t// in\n    tag_47:\n      mload(0x40)\n      dup1\n      swap2\n      sub\n      swap1\n      return\n        /* \"MilestoneEscrowContract.sol\":2972:3100  function getEscrowBalance(uint256 campaignId) external view returns (uint256) {... */\n    tag_9:\n      callvalue\n      dup1\n      iszero\n      tag_48\n      jumpi\n      revert(0x00, 0x00)\n    tag_48:\n      pop\n      tag_49\n      0x04\n      dup1\n      calldatasize\n      sub\n      dup2\n      add\n      swap1\n      tag_50\n      swap2\n      swap1\n      tag_26\n      jump\t// in\n    tag_50:\n      tag_51\n      jump\t// in\n    tag_49:\n      mload(0x40)\n      tag_52\n      swap2\n      swap1\n      tag_53\n      jump\t// in\n    tag_52:\n      mload(0x40)\n      dup1\n      swap2\n      sub\n      swap1\n      return\n        /* \"MilestoneEscrowContract.sol\":2249:2891  function releaseFunds(uint256 campaignId, address payable charity) external onlyCampaignContract {... */\n    tag_23:\n        /* \"MilestoneEscrowContract.sol\":1002:1018  campaignContract */\n      0x01\n      0x00\n      swap1\n      sload\n      swap1\n      0x0100\n      exp\n      swap1\n      div\n      0xffffffffffffffffffffffffffffffffffffffff\n      and\n        /* \"MilestoneEscrowContract.sol\":988:1018  msg.sender == campaignContract */\n      0xffffffffffffffffffffffffffffffffffffffff\n      and\n        /* \"MilestoneEscrowContract.sol\":988:998  msg.sender */\n      caller\n        /* \"MilestoneEscrowContract.sol\":988:1018  msg.sender == campaignContract */\n      0xffffffffffffffffffffffffffffffffffffffff\n      and\n      eq\n        /* \"MilestoneEscrowContract.sol\":980:1068  require(msg.sender == campaignContract, \"Only campaign contract can call this function\") */\n      tag_55\n      jumpi\n      mload(0x40)\n      0x08c379a000000000000000000000000000000000000000000000000000000000\n      dup2\n      mstore\n      0x04\n      add\n      tag_56\n      swap1\n      tag_57\n      jump\t// in\n    tag_56:\n      mload(0x40)\n      dup1\n      swap2\n      sub\n      swap1\n      revert\n    tag_55:\n        /* \"MilestoneEscrowContract.sol\":2383:2384  0 */\n      0x00\n        /* \"MilestoneEscrowContract.sol\":2364:2385  charity != address(0) */\n      0xffffffffffffffffffffffffffffffffffffffff\n      and\n        /* \"MilestoneEscrowContract.sol\":2364:2371  charity */\n      dup2\n        /* \"MilestoneEscrowContract.sol\":2364:2385  charity != address(0) */\n      0xffffffffffffffffffffffffffffffffffffffff\n      and\n      sub\n        /* \"MilestoneEscrowContract.sol\":2356:2420  require(charity != address(0), \"Charity address cannot be zero\") */\n      tag_59\n      jumpi\n      mload(0x40)\n      0x08c379a000000000000000000000000000000000000000000000000000000000\n      dup2\n      mstore\n      0x04\n      add\n      tag_60\n      swap1\n      tag_61\n      jump\t// in\n    tag_60:\n      mload(0x40)\n      dup1\n      swap2\n      sub\n      swap1\n      revert\n    tag_59:\n        /* \"MilestoneEscrowContract.sol\":2439:2447  released */\n      0x03\n        /* \"MilestoneEscrowContract.sol\":2439:2459  released[campaignId] */\n      0x00\n        /* \"MilestoneEscrowContract.sol\":2448:2458  campaignId */\n      dup4\n        /* \"MilestoneEscrowContract.sol\":2439:2459  released[campaignId] */\n      dup2\n      mstore\n      0x20\n      add\n      swap1\n      dup2\n      mstore\n      0x20\n      add\n      0x00\n      keccak256\n      0x00\n      swap1\n      sload\n      swap1\n      0x0100\n      exp\n      swap1\n      div\n      0xff\n      and\n        /* \"MilestoneEscrowContract.sol\":2438:2459  !released[campaignId] */\n      iszero\n        /* \"MilestoneEscrowContract.sol\":2430:2504  require(!released[campaignId], \"Funds already released for this campaign\") */\n      tag_62\n      jumpi\n      mload(0x40)\n      0x08c379a000000000000000000000000000000000000000000000000000000000\n      dup2\n      mstore\n      0x04\n      add\n      tag_63\n      swap1\n      tag_64\n      jump\t// in\n    tag_63:\n      mload(0x40)\n      dup1\n      swap2\n      sub\n      swap1\n      revert\n    tag_62:\n        /* \"MilestoneEscrowContract.sol\":2515:2529  uint256 amount */\n      0x00\n        /* \"MilestoneEscrowContract.sol\":2532:2546  escrowBalances */\n      0x02\n        /* \"MilestoneEscrowContract.sol\":2532:2558  escrowBalances[campaignId] */\n      0x00\n        /* \"MilestoneEscrowContract.sol\":2547:2557  campaignId */\n      dup5\n        /* \"MilestoneEscrowContract.sol\":2532:2558  escrowBalances[campaignId] */\n      dup2\n      mstore\n      0x20\n      add\n      swap1\n      dup2\n      mstore\n      0x20\n      add\n      0x00\n      keccak256\n      sload\n        /* \"MilestoneEscrowContract.sol\":2515:2558  uint256 amount = escrowBalances[campaignId] */\n      swap1\n      pop\n        /* \"MilestoneEscrowContract.sol\":2585:2586  0 */\n      0x00\n        /* \"MilestoneEscrowContract.sol\":2576:2582  amount */\n      dup2\n        /* \"MilestoneEscrowContract.sol\":2576:2586  amount > 0 */\n      gt\n        /* \"MilestoneEscrowContract.sol\":2568:2627  require(amount > 0, \"No funds available for this campaign\") */\n      tag_65\n      jumpi\n      mload(0x40)\n      0x08c379a000000000000000000000000000000000000000000000000000000000\n      dup2\n      mstore\n      0x04\n      add\n      tag_66\n      swap1\n      tag_67\n      jump\t// in\n    tag_66:\n      mload(0x40)\n      dup1\n      swap2\n      sub\n      swap1\n      revert\n    tag_65:\n        /* \"MilestoneEscrowContract.sol\":2661:2665  true */\n      0x01\n        /* \"MilestoneEscrowContract.sol\":2638:2646  released */\n      0x03\n        /* \"MilestoneEscrowContract.sol\":2638:2658  released[campaignId] */\n      0x00\n        /* \"MilestoneEscrowContract.sol\":2647:2657  campaignId */\n      dup6\n        /* \"MilestoneEscrowContract.sol\":2638:2658  released[campaignId] */\n      dup2\n      mstore\n      0x20\n      add\n      swap1\n      dup2\n      mstore\n      0x20\n      add\n      0x00\n      keccak256\n      0x00\n        /* \"MilestoneEscrowContract.sol\":2638:2665  released[campaignId] = true */\n      0x0100\n      exp\n      dup2\n      sload\n      dup2\n      0xff\n      mul\n      not\n      and\n      swap1\n      dup4\n      iszero\n      iszero\n      mul\n      or\n      swap1\n      sstore\n      pop\n        /* \"MilestoneEscrowContract.sol\":2704:2705  0 */\n      0x00\n        /* \"MilestoneEscrowContract.sol\":2675:2689  escrowBalances */\n      0x02\n        /* \"MilestoneEscrowContract.sol\":2675:2701  escrowBalances[campaignId] */\n      0x00\n        /* \"MilestoneEscrowContract.sol\":2690:2700  campaignId */\n      dup6\n        /* \"MilestoneEscrowContract.sol\":2675:2701  escrowBalances[campaignId] */\n      dup2\n      mstore\n      0x20\n      add\n      swap1\n      dup2\n      mstore\n      0x20\n      add\n      0x00\n      keccak256\n        /* \"MilestoneEscrowContract.sol\":2675:2705  escrowBalances[campaignId] = 0 */\n      dup2\n      swap1\n      sstore\n      pop\n        /* \"MilestoneEscrowContract.sol\":2717:2729  bool success */\n      0x00\n        /* \"MilestoneEscrowContract.sol\":2735:2742  charity */\n      dup3\n        /* \"MilestoneEscrowContract.sol\":2735:2747  charity.call */\n      0xffffffffffffffffffffffffffffffffffffffff\n      and\n        /* \"MilestoneEscrowContract.sol\":2755:2761  amount */\n      dup3\n        /* \"MilestoneEscrowContract.sol\":2735:2766  charity.call{value: amount}(\"\") */\n      mload(0x40)\n      tag_68\n      swap1\n      tag_69\n      jump\t// in\n    tag_68:\n      0x00\n      mload(0x40)\n      dup1\n      dup4\n      sub\n      dup2\n      dup6\n      dup8\n      gas\n      call\n      swap3\n      pop\n      pop\n      pop\n      returndatasize\n      dup1\n      0x00\n      dup2\n      eq\n      tag_72\n      jumpi\n      mload(0x40)\n      swap2\n      pop\n      and(add(returndatasize, 0x3f), not(0x1f))\n      dup3\n      add\n      0x40\n      mstore\n      returndatasize\n      dup3\n      mstore\n      returndatasize\n      0x00\n      0x20\n      dup5\n      add\n      returndatacopy\n      jump(tag_71)\n    tag_72:\n      0x60\n      swap2\n      pop\n    tag_71:\n      pop\n        /* \"MilestoneEscrowContract.sol\":2716:2766  (bool success, ) = charity.call{value: amount}(\"\") */\n      pop\n      swap1\n      pop\n        /* \"MilestoneEscrowContract.sol\":2784:2791  success */\n      dup1\n        /* \"MilestoneEscrowContract.sol\":2776:2826  require(success, \"ETH transfer to charity failed\") */\n      tag_73\n      jumpi\n      mload(0x40)\n      0x08c379a000000000000000000000000000000000000000000000000000000000\n      dup2\n      mstore\n      0x04\n      add\n      tag_74\n      swap1\n      tag_75\n      jump\t// in\n    tag_74:\n      mload(0x40)\n      dup1\n      swap2\n      sub\n      swap1\n      revert\n    tag_73:\n        /* \"MilestoneEscrowContract.sol\":2868:2875  charity */\n      dup3\n        /* \"MilestoneEscrowContract.sol\":2842:2884  FundsReleased(campaignId, charity, amount) */\n      0xffffffffffffffffffffffffffffffffffffffff\n      and\n        /* \"MilestoneEscrowContract.sol\":2856:2866  campaignId */\n      dup5\n        /* \"MilestoneEscrowContract.sol\":2842:2884  FundsReleased(campaignId, charity, amount) */\n      0x6e3c6096795c8298a218b2cfb8bde42726ff7c9a3d27b4d3ba41ab7f74feb5fb\n        /* \"MilestoneEscrowContract.sol\":2877:2883  amount */\n      dup5\n        /* \"MilestoneEscrowContract.sol\":2842:2884  FundsReleased(campaignId, charity, amount) */\n      mload(0x40)\n      tag_76\n      swap2\n      swap1\n      tag_53\n      jump\t// in\n    tag_76:\n      mload(0x40)\n      dup1\n      swap2\n      sub\n      swap1\n      log3\n        /* \"MilestoneEscrowContract.sol\":2346:2891  {... */\n      pop\n      pop\n        /* \"MilestoneEscrowContract.sol\":2249:2891  function releaseFunds(uint256 campaignId, address payable charity) external onlyCampaignContract {... */\n      pop\n      pop\n      jump\t// out\n        /* \"MilestoneEscrowContract.sol\":1729:2079  function depositFunds(uint256 campaignId) external payable onlyCampaignContract {... */\n    tag_27:\n        /* \"MilestoneEscrowContract.sol\":1002:1018  campaignContract */\n      0x01\n      0x00\n      swap1\n      sload\n      swap1\n      0x0100\n      exp\n      swap1\n      div\n      0xffffffffffffffffffffffffffffffffffffffff\n      and\n        /* \"MilestoneEscrowContract.sol\":988:1018  msg.sender == campaignContract */\n      0xffffffffffffffffffffffffffffffffffffffff\n      and\n        /* \"MilestoneEscrowContract.sol\":988:998  msg.sender */\n      caller\n        /* \"MilestoneEscrowContract.sol\":988:1018  msg.sender == campaignContract */\n      0xffffffffffffffffffffffffffffffffffffffff\n      and\n      eq\n        /* \"MilestoneEscrowContract.sol\":980:1068  require(msg.sender == campaignContract, \"Only campaign contract can call this function\") */\n      tag_78\n      jumpi\n      mload(0x40)\n      0x08c379a000000000000000000000000000000000000000000000000000000000\n      dup2\n      mstore\n      0x04\n      add\n      tag_79\n      swap1\n      tag_57\n      jump\t// in\n    tag_79:\n      mload(0x40)\n      dup1\n      swap2\n      sub\n      swap1\n      revert\n    tag_78:\n        /* \"MilestoneEscrowContract.sol\":1839:1840  0 */\n      0x00\n        /* \"MilestoneEscrowContract.sol\":1827:1836  msg.value */\n      callvalue\n        /* \"MilestoneEscrowContract.sol\":1827:1840  msg.value > 0 */\n      gt\n        /* \"MilestoneEscrowContract.sol\":1819:1885  require(msg.value > 0, \"Deposit amount must be greater than zero\") */\n      tag_81\n      jumpi\n      mload(0x40)\n      0x08c379a000000000000000000000000000000000000000000000000000000000\n      dup2\n      mstore\n      0x04\n      add\n      tag_82\n      swap1\n      tag_83\n      jump\t// in\n    tag_82:\n      mload(0x40)\n      dup1\n      swap2\n      sub\n      swap1\n      revert\n    tag_81:\n        /* \"MilestoneEscrowContract.sol\":1904:1912  released */\n      0x03\n        /* \"MilestoneEscrowContract.sol\":1904:1924  released[campaignId] */\n      0x00\n        /* \"MilestoneEscrowContract.sol\":1913:1923  campaignId */\n      dup3\n        /* \"MilestoneEscrowContract.sol\":1904:1924  released[campaignId] */\n      dup2\n      mstore\n      0x20\n      add\n      swap1\n      dup2\n      mstore\n      0x20\n      add\n      0x00\n      keccak256\n      0x00\n      swap1\n      sload\n      swap1\n      0x0100\n      exp\n      swap1\n      div\n      0xff\n      and\n        /* \"MilestoneEscrowContract.sol\":1903:1924  !released[campaignId] */\n      iszero\n        /* \"MilestoneEscrowContract.sol\":1895:1969  require(!released[campaignId], \"Funds already released for this campaign\") */\n      tag_84\n      jumpi\n      mload(0x40)\n      0x08c379a000000000000000000000000000000000000000000000000000000000\n      dup2\n      mstore\n      0x04\n      add\n      tag_85\n      swap1\n      tag_64\n      jump\t// in\n    tag_85:\n      mload(0x40)\n      dup1\n      swap2\n      sub\n      swap1\n      revert\n    tag_84:\n        /* \"MilestoneEscrowContract.sol\":2010:2019  msg.value */\n      callvalue\n        /* \"MilestoneEscrowContract.sol\":1980:1994  escrowBalances */\n      0x02\n        /* \"MilestoneEscrowContract.sol\":1980:2006  escrowBalances[campaignId] */\n      0x00\n        /* \"MilestoneEscrowContract.sol\":1995:2005  campaignId */\n      dup4\n        /* \"MilestoneEscrowContract.sol\":1980:2006  escrowBalances[campaignId] */\n      dup2\n      mstore\n      0x20\n      add\n      swap1\n      dup2\n      mstore\n      0x20\n      add\n      0x00\n      keccak256\n      0x00\n        /* \"MilestoneEscrowContract.sol\":1980:2019  escrowBalances[campaignId] += msg.value */\n      dup3\n      dup3\n      sload\n      tag_86\n      swap2\n      swap1\n      tag_87\n      jump\t// in\n    tag_86:\n      swap3\n      pop\n      pop\n      dup2\n      swap1\n      sstore\n      pop\n        /* \"MilestoneEscrowContract.sol\":2050:2060  campaignId */\n      dup1\n        /* \"MilestoneEscrowContract.sol\":2035:2072  FundsDeposited(campaignId, msg.value) */\n      0x26679fa1f3868c950e9362f1106cf73f3318de0280e0411a3c68e4b463eadd4f\n        /* \"MilestoneEscrowContract.sol\":2062:2071  msg.value */\n      callvalue\n        /* \"MilestoneEscrowContract.sol\":2035:2072  FundsDeposited(campaignId, msg.value) */\n      mload(0x40)\n      tag_88\n      swap2\n      swap1\n      tag_53\n      jump\t// in\n    tag_88:\n      mload(0x40)\n      dup1\n      swap2\n      sub\n      swap1\n      log2\n        /* \"MilestoneEscrowContract.sol\":1729:2079  function depositFunds(uint256 campaignId) external payable onlyCampaignContract {... */\n      pop\n      jump\t// out\n        /* \"MilestoneEscrowContract.sol\":1289:1570  function setCampaignContract(address _campaignContract) external onlyAdmin {... */\n    tag_32:\n        /* \"MilestoneEscrowContract.sol\":871:876  admin */\n      0x00\n      0x00\n      swap1\n      sload\n      swap1\n      0x0100\n      exp\n      swap1\n      div\n      0xffffffffffffffffffffffffffffffffffffffff\n      and\n        /* \"MilestoneEscrowContract.sol\":857:876  msg.sender == admin */\n      0xffffffffffffffffffffffffffffffffffffffff\n      and\n        /* \"MilestoneEscrowContract.sol\":857:867  msg.sender */\n      caller\n        /* \"MilestoneEscrowContract.sol\":857:876  msg.sender == admin */\n      0xffffffffffffffffffffffffffffffffffffffff\n      and\n      eq\n        /* \"MilestoneEscrowContract.sol\":849:914  require(msg.sender == admin, \"Only admin can call this function\") */\n      tag_90\n      jumpi\n      mload(0x40)\n      0x08c379a000000000000000000000000000000000000000000000000000000000\n      dup2\n      mstore\n      0x04\n      add\n      tag_91\n      swap1\n      tag_92\n      jump\t// in\n    tag_91:\n      mload(0x40)\n      dup1\n      swap2\n      sub\n      swap1\n      revert\n    tag_90:\n        /* \"MilestoneEscrowContract.sol\":1411:1412  0 */\n      0x00\n        /* \"MilestoneEscrowContract.sol\":1382:1413  _campaignContract != address(0) */\n      0xffffffffffffffffffffffffffffffffffffffff\n      and\n        /* \"MilestoneEscrowContract.sol\":1382:1399  _campaignContract */\n      dup2\n        /* \"MilestoneEscrowContract.sol\":1382:1413  _campaignContract != address(0) */\n      0xffffffffffffffffffffffffffffffffffffffff\n      and\n      sub\n        /* \"MilestoneEscrowContract.sol\":1374:1458  require(_campaignContract != address(0), \"Campaign contract address cannot be zero\") */\n      tag_94\n      jumpi\n      mload(0x40)\n      0x08c379a000000000000000000000000000000000000000000000000000000000\n      dup2\n      mstore\n      0x04\n      add\n      tag_95\n      swap1\n      tag_96\n      jump\t// in\n    tag_95:\n      mload(0x40)\n      dup1\n      swap2\n      sub\n      swap1\n      revert\n    tag_94:\n        /* \"MilestoneEscrowContract.sol\":1488:1505  _campaignContract */\n      dup1\n        /* \"MilestoneEscrowContract.sol\":1469:1485  campaignContract */\n      0x01\n      0x00\n        /* \"MilestoneEscrowContract.sol\":1469:1505  campaignContract = _campaignContract */\n      0x0100\n      exp\n      dup2\n      sload\n      dup2\n      0xffffffffffffffffffffffffffffffffffffffff\n      mul\n      not\n      and\n      swap1\n      dup4\n      0xffffffffffffffffffffffffffffffffffffffff\n      and\n      mul\n      or\n      swap1\n      sstore\n      pop\n        /* \"MilestoneEscrowContract.sol\":1545:1562  _campaignContract */\n      dup1\n        /* \"MilestoneEscrowContract.sol\":1521:1563  CampaignContractUpdated(_campaignContract) */\n      0xffffffffffffffffffffffffffffffffffffffff\n      and\n      0x6491c96e1537733a87c87454e5b4c875a5d385cedde992c8df5817ab5a1995bc\n      mload(0x40)\n      mload(0x40)\n      dup1\n      swap2\n      sub\n      swap1\n      log2\n        /* \"MilestoneEscrowContract.sol\":1289:1570  function setCampaignContract(address _campaignContract) external onlyAdmin {... */\n      pop\n      jump\t// out\n        /* \"MilestoneEscrowContract.sol\":3199:3312  function isReleased(uint256 campaignId) external view returns (bool) {... */\n    tag_36:\n        /* \"MilestoneEscrowContract.sol\":3262:3266  bool */\n      0x00\n        /* \"MilestoneEscrowContract.sol\":3285:3293  released */\n      0x03\n        /* \"MilestoneEscrowContract.sol\":3285:3305  released[campaignId] */\n      0x00\n        /* \"MilestoneEscrowContract.sol\":3294:3304  campaignId */\n      dup4\n        /* \"MilestoneEscrowContract.sol\":3285:3305  released[campaignId] */\n      dup2\n      mstore\n      0x20\n      add\n      swap1\n      dup2\n      mstore\n      0x20\n      add\n      0x00\n      keccak256\n      0x00\n      swap1\n      sload\n      swap1\n      0x0100\n      exp\n      swap1\n      div\n      0xff\n      and\n        /* \"MilestoneEscrowContract.sol\":3278:3305  return released[campaignId] */\n      swap1\n      pop\n        /* \"MilestoneEscrowContract.sol\":3199:3312  function isReleased(uint256 campaignId) external view returns (bool) {... */\n      swap2\n      swap1\n      pop\n      jump\t// out\n        /* \"MilestoneEscrowContract.sol\":3402:3512  function getCampaignContractAddress() external view returns (address) {... */\n    tag_41:\n        /* \"MilestoneEscrowContract.sol\":3463:3470  address */\n      0x00\n        /* \"MilestoneEscrowContract.sol\":3489:3505  campaignContract */\n      0x01\n      0x00\n      swap1\n      sload\n      swap1\n      0x0100\n      exp\n      swap1\n      div\n      0xffffffffffffffffffffffffffffffffffffffff\n      and\n        /* \"MilestoneEscrowContract.sol\":3482:3505  return campaignContract */\n      swap1\n      pop\n        /* \"MilestoneEscrowContract.sol\":3402:3512  function getCampaignContractAddress() external view returns (address) {... */\n      swap1\n      jump\t// out\n        /* \"MilestoneEscrowContract.sol\":415:435  address public admin */\n    tag_46:\n      0x00\n      0x00\n      swap1\n      sload\n      swap1\n      0x0100\n      exp\n      swap1\n      div\n      0xffffffffffffffffffffffffffffffffffffffff\n      and\n      dup2\n      jump\t// out\n        /* \"MilestoneEscrowContract.sol\":2972:3100  function getEscrowBalance(uint256 campaignId) external view returns (uint256) {... */\n    tag_51:\n        /* \"MilestoneEscrowContract.sol\":3041:3048  uint256 */\n      0x00\n        /* \"MilestoneEscrowContract.sol\":3067:3081  escrowBalances */\n      0x02\n        /* \"MilestoneEscrowContract.sol\":3067:3093  escrowBalances[campaignId] */\n      0x00\n        /* \"MilestoneEscrowContract.sol\":3082:3092  campaignId */\n      dup4\n        /* \"MilestoneEscrowContract.sol\":3067:3093  escrowBalances[campaignId] */\n      dup2\n      mstore\n      0x20\n      add\n      swap1\n      dup2\n      mstore\n      0x20\n      add\n      0x00\n      keccak256\n      sload\n        /* \"MilestoneEscrowContract.sol\":3060:3093  return escrowBalances[campaignId] */\n      swap1\n      pop\n        /* \"MilestoneEscrowContract.sol\":2972:3100  function getEscrowBalance(uint256 campaignId) external view returns (uint256) {... */\n      swap2\n      swap1\n      pop\n      jump\t// out\n        /* \"#utility.yul\":7:176   */\n    tag_100:\n        /* \"#utility.yul\":91:102   */\n      0x00\n        /* \"#utility.yul\":125:131   */\n      dup3\n        /* \"#utility.yul\":120:123   */\n      dup3\n        /* \"#utility.yul\":113:132   */\n      mstore\n        /* \"#utility.yul\":165:169   */\n      0x20\n        /* \"#utility.yul\":160:163   */\n      dup3\n        /* \"#utility.yul\":156:170   */\n      add\n        /* \"#utility.yul\":141:170   */\n      swap1\n      pop\n        /* \"#utility.yul\":7:176   */\n      swap3\n      swap2\n      pop\n      pop\n      jump\t// out\n        /* \"#utility.yul\":182:415   */\n    tag_101:\n        /* \"#utility.yul\":322:356   */\n      0x557365206465706f73697446756e6473207468726f756768207468652063616d\n        /* \"#utility.yul\":318:319   */\n      0x00\n        /* \"#utility.yul\":310:316   */\n      dup3\n        /* \"#utility.yul\":306:320   */\n      add\n        /* \"#utility.yul\":299:357   */\n      mstore\n        /* \"#utility.yul\":391:407   */\n      0x706169676e20636f6e7472616374000000000000000000000000000000000000\n        /* \"#utility.yul\":386:388   */\n      0x20\n        /* \"#utility.yul\":378:384   */\n      dup3\n        /* \"#utility.yul\":374:389   */\n      add\n        /* \"#utility.yul\":367:408   */\n      mstore\n        /* \"#utility.yul\":182:415   */\n      pop\n      jump\t// out\n        /* \"#utility.yul\":421:787   */\n    tag_102:\n        /* \"#utility.yul\":563:566   */\n      0x00\n        /* \"#utility.yul\":584:651   */\n      tag_146\n        /* \"#utility.yul\":648:650   */\n      0x2e\n        /* \"#utility.yul\":643:646   */\n      dup4\n        /* \"#utility.yul\":584:651   */\n      tag_100\n      jump\t// in\n    tag_146:\n        /* \"#utility.yul\":577:651   */\n      swap2\n      pop\n        /* \"#utility.yul\":660:753   */\n      tag_147\n        /* \"#utility.yul\":749:752   */\n      dup3\n        /* \"#utility.yul\":660:753   */\n      tag_101\n      jump\t// in\n    tag_147:\n        /* \"#utility.yul\":778:780   */\n      0x40\n        /* \"#utility.yul\":773:776   */\n      dup3\n        /* \"#utility.yul\":769:781   */\n      add\n        /* \"#utility.yul\":762:781   */\n      swap1\n      pop\n        /* \"#utility.yul\":421:787   */\n      swap2\n      swap1\n      pop\n      jump\t// out\n        /* \"#utility.yul\":793:1212   */\n    tag_14:\n        /* \"#utility.yul\":959:963   */\n      0x00\n        /* \"#utility.yul\":997:999   */\n      0x20\n        /* \"#utility.yul\":986:995   */\n      dup3\n        /* \"#utility.yul\":982:1000   */\n      add\n        /* \"#utility.yul\":974:1000   */\n      swap1\n      pop\n        /* \"#utility.yul\":1046:1055   */\n      dup2\n        /* \"#utility.yul\":1040:1044   */\n      dup2\n        /* \"#utility.yul\":1036:1056   */\n      sub\n        /* \"#utility.yul\":1032:1033   */\n      0x00\n        /* \"#utility.yul\":1021:1030   */\n      dup4\n        /* \"#utility.yul\":1017:1034   */\n      add\n        /* \"#utility.yul\":1010:1057   */\n      mstore\n        /* \"#utility.yul\":1074:1205   */\n      tag_149\n        /* \"#utility.yul\":1200:1204   */\n      dup2\n        /* \"#utility.yul\":1074:1205   */\n      tag_102\n      jump\t// in\n    tag_149:\n        /* \"#utility.yul\":1066:1205   */\n      swap1\n      pop\n        /* \"#utility.yul\":793:1212   */\n      swap2\n      swap1\n      pop\n      jump\t// out\n        /* \"#utility.yul\":1218:1396   */\n    tag_103:\n        /* \"#utility.yul\":1358:1388   */\n      0x496e76616c696420657363726f7720636f6e74726163742063616c6c00000000\n        /* \"#utility.yul\":1354:1355   */\n      0x00\n        /* \"#utility.yul\":1346:1352   */\n      dup3\n        /* \"#utility.yul\":1342:1356   */\n      add\n        /* \"#utility.yul\":1335:1389   */\n      mstore\n        /* \"#utility.yul\":1218:1396   */\n      pop\n      jump\t// out\n        /* \"#utility.yul\":1402:1768   */\n    tag_104:\n        /* \"#utility.yul\":1544:1547   */\n      0x00\n        /* \"#utility.yul\":1565:1632   */\n      tag_152\n        /* \"#utility.yul\":1629:1631   */\n      0x1c\n        /* \"#utility.yul\":1624:1627   */\n      dup4\n        /* \"#utility.yul\":1565:1632   */\n      tag_100\n      jump\t// in\n    tag_152:\n        /* \"#utility.yul\":1558:1632   */\n      swap2\n      pop\n        /* \"#utility.yul\":1641:1734   */\n      tag_153\n        /* \"#utility.yul\":1730:1733   */\n      dup3\n        /* \"#utility.yul\":1641:1734   */\n      tag_103\n      jump\t// in\n    tag_153:\n        /* \"#utility.yul\":1759:1761   */\n      0x20\n        /* \"#utility.yul\":1754:1757   */\n      dup3\n        /* \"#utility.yul\":1750:1762   */\n      add\n        /* \"#utility.yul\":1743:1762   */\n      swap1\n      pop\n        /* \"#utility.yul\":1402:1768   */\n      swap2\n      swap1\n      pop\n      jump\t// out\n        /* \"#utility.yul\":1774:2193   */\n    tag_18:\n        /* \"#utility.yul\":1940:1944   */\n      0x00\n        /* \"#utility.yul\":1978:1980   */\n      0x20\n        /* \"#utility.yul\":1967:1976   */\n      dup3\n        /* \"#utility.yul\":1963:1981   */\n      add\n        /* \"#utility.yul\":1955:1981   */\n      swap1\n      pop\n        /* \"#utility.yul\":2027:2036   */\n      dup2\n        /* \"#utility.yul\":2021:2025   */\n      dup2\n        /* \"#utility.yul\":2017:2037   */\n      sub\n        /* \"#utility.yul\":2013:2014   */\n      0x00\n        /* \"#utility.yul\":2002:2011   */\n      dup4\n        /* \"#utility.yul\":1998:2015   */\n      add\n        /* \"#utility.yul\":1991:2038   */\n      mstore\n        /* \"#utility.yul\":2055:2186   */\n      tag_155\n        /* \"#utility.yul\":2181:2185   */\n      dup2\n        /* \"#utility.yul\":2055:2186   */\n      tag_104\n      jump\t// in\n    tag_155:\n        /* \"#utility.yul\":2047:2186   */\n      swap1\n      pop\n        /* \"#utility.yul\":1774:2193   */\n      swap2\n      swap1\n      pop\n      jump\t// out\n        /* \"#utility.yul\":2280:2397   */\n    tag_106:\n        /* \"#utility.yul\":2389:2390   */\n      0x00\n        /* \"#utility.yul\":2386:2387   */\n      0x00\n        /* \"#utility.yul\":2379:2391   */\n      revert\n        /* \"#utility.yul\":2526:2603   */\n    tag_108:\n        /* \"#utility.yul\":2563:2570   */\n      0x00\n        /* \"#utility.yul\":2592:2597   */\n      dup2\n        /* \"#utility.yul\":2581:2597   */\n      swap1\n      pop\n        /* \"#utility.yul\":2526:2603   */\n      swap2\n      swap1\n      pop\n      jump\t// out\n        /* \"#utility.yul\":2609:2731   */\n    tag_109:\n        /* \"#utility.yul\":2682:2706   */\n      tag_161\n        /* \"#utility.yul\":2700:2705   */\n      dup2\n        /* \"#utility.yul\":2682:2706   */\n      tag_108\n      jump\t// in\n    tag_161:\n        /* \"#utility.yul\":2675:2680   */\n      dup2\n        /* \"#utility.yul\":2672:2707   */\n      eq\n        /* \"#utility.yul\":2662:2725   */\n      tag_162\n      jumpi\n        /* \"#utility.yul\":2721:2722   */\n      0x00\n        /* \"#utility.yul\":2718:2719   */\n      0x00\n        /* \"#utility.yul\":2711:2723   */\n      revert\n        /* \"#utility.yul\":2662:2725   */\n    tag_162:\n        /* \"#utility.yul\":2609:2731   */\n      pop\n      jump\t// out\n        /* \"#utility.yul\":2737:2876   */\n    tag_110:\n        /* \"#utility.yul\":2783:2788   */\n      0x00\n        /* \"#utility.yul\":2821:2827   */\n      dup2\n        /* \"#utility.yul\":2808:2828   */\n      calldataload\n        /* \"#utility.yul\":2799:2828   */\n      swap1\n      pop\n        /* \"#utility.yul\":2837:2870   */\n      tag_164\n        /* \"#utility.yul\":2864:2869   */\n      dup2\n        /* \"#utility.yul\":2837:2870   */\n      tag_109\n      jump\t// in\n    tag_164:\n        /* \"#utility.yul\":2737:2876   */\n      swap3\n      swap2\n      pop\n      pop\n      jump\t// out\n        /* \"#utility.yul\":2882:3008   */\n    tag_111:\n        /* \"#utility.yul\":2919:2926   */\n      0x00\n        /* \"#utility.yul\":2959:3001   */\n      0xffffffffffffffffffffffffffffffffffffffff\n        /* \"#utility.yul\":2952:2957   */\n      dup3\n        /* \"#utility.yul\":2948:3002   */\n      and\n        /* \"#utility.yul\":2937:3002   */\n      swap1\n      pop\n        /* \"#utility.yul\":2882:3008   */\n      swap2\n      swap1\n      pop\n      jump\t// out\n        /* \"#utility.yul\":3014:3118   */\n    tag_112:\n        /* \"#utility.yul\":3059:3066   */\n      0x00\n        /* \"#utility.yul\":3088:3112   */\n      tag_167\n        /* \"#utility.yul\":3106:3111   */\n      dup3\n        /* \"#utility.yul\":3088:3112   */\n      tag_111\n      jump\t// in\n    tag_167:\n        /* \"#utility.yul\":3077:3112   */\n      swap1\n      pop\n        /* \"#utility.yul\":3014:3118   */\n      swap2\n      swap1\n      pop\n      jump\t// out\n        /* \"#utility.yul\":3124:3262   */\n    tag_113:\n        /* \"#utility.yul\":3205:3237   */\n      tag_169\n        /* \"#utility.yul\":3231:3236   */\n      dup2\n        /* \"#utility.yul\":3205:3237   */\n      tag_112\n      jump\t// in\n    tag_169:\n        /* \"#utility.yul\":3198:3203   */\n      dup2\n        /* \"#utility.yul\":3195:3238   */\n      eq\n        /* \"#utility.yul\":3185:3256   */\n      tag_170\n      jumpi\n        /* \"#utility.yul\":3252:3253   */\n      0x00\n        /* \"#utility.yul\":3249:3250   */\n      0x00\n        /* \"#utility.yul\":3242:3254   */\n      revert\n        /* \"#utility.yul\":3185:3256   */\n    tag_170:\n        /* \"#utility.yul\":3124:3262   */\n      pop\n      jump\t// out\n        /* \"#utility.yul\":3268:3423   */\n    tag_114:\n        /* \"#utility.yul\":3322:3327   */\n      0x00\n        /* \"#utility.yul\":3360:3366   */\n      dup2\n        /* \"#utility.yul\":3347:3367   */\n      calldataload\n        /* \"#utility.yul\":3338:3367   */\n      swap1\n      pop\n        /* \"#utility.yul\":3376:3417   */\n      tag_172\n        /* \"#utility.yul\":3411:3416   */\n      dup2\n        /* \"#utility.yul\":3376:3417   */\n      tag_113\n      jump\t// in\n    tag_172:\n        /* \"#utility.yul\":3268:3423   */\n      swap3\n      swap2\n      pop\n      pop\n      jump\t// out\n        /* \"#utility.yul\":3429:3919   */\n    tag_22:\n        /* \"#utility.yul\":3505:3511   */\n      0x00\n        /* \"#utility.yul\":3513:3519   */\n      0x00\n        /* \"#utility.yul\":3562:3564   */\n      0x40\n        /* \"#utility.yul\":3550:3559   */\n      dup4\n        /* \"#utility.yul\":3541:3548   */\n      dup6\n        /* \"#utility.yul\":3537:3560   */\n      sub\n        /* \"#utility.yul\":3533:3565   */\n      slt\n        /* \"#utility.yul\":3530:3649   */\n      iszero\n      tag_174\n      jumpi\n        /* \"#utility.yul\":3568:3647   */\n      tag_175\n      tag_106\n      jump\t// in\n    tag_175:\n        /* \"#utility.yul\":3530:3649   */\n    tag_174:\n        /* \"#utility.yul\":3688:3689   */\n      0x00\n        /* \"#utility.yul\":3713:3766   */\n      tag_176\n        /* \"#utility.yul\":3758:3765   */\n      dup6\n        /* \"#utility.yul\":3749:3755   */\n      dup3\n        /* \"#utility.yul\":3738:3747   */\n      dup7\n        /* \"#utility.yul\":3734:3756   */\n      add\n        /* \"#utility.yul\":3713:3766   */\n      tag_110\n      jump\t// in\n    tag_176:\n        /* \"#utility.yul\":3703:3766   */\n      swap3\n      pop\n        /* \"#utility.yul\":3659:3776   */\n      pop\n        /* \"#utility.yul\":3815:3817   */\n      0x20\n        /* \"#utility.yul\":3841:3902   */\n      tag_177\n        /* \"#utility.yul\":3894:3901   */\n      dup6\n        /* \"#utility.yul\":3885:3891   */\n      dup3\n        /* \"#utility.yul\":3874:3883   */\n      dup7\n        /* \"#utility.yul\":3870:3892   */\n      add\n        /* \"#utility.yul\":3841:3902   */\n      tag_114\n      jump\t// in\n    tag_177:\n        /* \"#utility.yul\":3831:3902   */\n      swap2\n      pop\n        /* \"#utility.yul\":3786:3912   */\n      pop\n        /* \"#utility.yul\":3429:3919   */\n      swap3\n      pop\n      swap3\n      swap1\n      pop\n      jump\t// out\n        /* \"#utility.yul\":3925:4254   */\n    tag_26:\n        /* \"#utility.yul\":3984:3990   */\n      0x00\n        /* \"#utility.yul\":4033:4035   */\n      0x20\n        /* \"#utility.yul\":4021:4030   */\n      dup3\n        /* \"#utility.yul\":4012:4019   */\n      dup5\n        /* \"#utility.yul\":4008:4031   */\n      sub\n        /* \"#utility.yul\":4004:4036   */\n      slt\n        /* \"#utility.yul\":4001:4120   */\n      iszero\n      tag_179\n      jumpi\n        /* \"#utility.yul\":4039:4118   */\n      tag_180\n      tag_106\n      jump\t// in\n    tag_180:\n        /* \"#utility.yul\":4001:4120   */\n    tag_179:\n        /* \"#utility.yul\":4159:4160   */\n      0x00\n        /* \"#utility.yul\":4184:4237   */\n      tag_181\n        /* \"#utility.yul\":4229:4236   */\n      dup5\n        /* \"#utility.yul\":4220:4226   */\n      dup3\n        /* \"#utility.yul\":4209:4218   */\n      dup6\n        /* \"#utility.yul\":4205:4227   */\n      add\n        /* \"#utility.yul\":4184:4237   */\n      tag_110\n      jump\t// in\n    tag_181:\n        /* \"#utility.yul\":4174:4237   */\n      swap2\n      pop\n        /* \"#utility.yul\":4130:4247   */\n      pop\n        /* \"#utility.yul\":3925:4254   */\n      swap3\n      swap2\n      pop\n      pop\n      jump\t// out\n        /* \"#utility.yul\":4260:4356   */\n    tag_115:\n        /* \"#utility.yul\":4297:4304   */\n      0x00\n        /* \"#utility.yul\":4326:4350   */\n      tag_183\n        /* \"#utility.yul\":4344:4349   */\n      dup3\n        /* \"#utility.yul\":4326:4350   */\n      tag_111\n      jump\t// in\n    tag_183:\n        /* \"#utility.yul\":4315:4350   */\n      swap1\n      pop\n        /* \"#utility.yul\":4260:4356   */\n      swap2\n      swap1\n      pop\n      jump\t// out\n        /* \"#utility.yul\":4362:4484   */\n    tag_116:\n        /* \"#utility.yul\":4435:4459   */\n      tag_185\n        /* \"#utility.yul\":4453:4458   */\n      dup2\n        /* \"#utility.yul\":4435:4459   */\n      tag_115\n      jump\t// in\n    tag_185:\n        /* \"#utility.yul\":4428:4433   */\n      dup2\n        /* \"#utility.yul\":4425:4460   */\n      eq\n        /* \"#utility.yul\":4415:4478   */\n      tag_186\n      jumpi\n        /* \"#utility.yul\":4474:4475   */\n      0x00\n        /* \"#utility.yul\":4471:4472   */\n      0x00\n        /* \"#utility.yul\":4464:4476   */\n      revert\n        /* \"#utility.yul\":4415:4478   */\n    tag_186:\n        /* \"#utility.yul\":4362:4484   */\n      pop\n      jump\t// out\n        /* \"#utility.yul\":4490:4629   */\n    tag_117:\n        /* \"#utility.yul\":4536:4541   */\n      0x00\n        /* \"#utility.yul\":4574:4580   */\n      dup2\n        /* \"#utility.yul\":4561:4581   */\n      calldataload\n        /* \"#utility.yul\":4552:4581   */\n      swap1\n      pop\n        /* \"#utility.yul\":4590:4623   */\n      tag_188\n        /* \"#utility.yul\":4617:4622   */\n      dup2\n        /* \"#utility.yul\":4590:4623   */\n      tag_116\n      jump\t// in\n    tag_188:\n        /* \"#utility.yul\":4490:4629   */\n      swap3\n      swap2\n      pop\n      pop\n      jump\t// out\n        /* \"#utility.yul\":4635:4964   */\n    tag_31:\n        /* \"#utility.yul\":4694:4700   */\n      0x00\n        /* \"#utility.yul\":4743:4745   */\n      0x20\n        /* \"#utility.yul\":4731:4740   */\n      dup3\n        /* \"#utility.yul\":4722:4729   */\n      dup5\n        /* \"#utility.yul\":4718:4741   */\n      sub\n        /* \"#utility.yul\":4714:4746   */\n      slt\n        /* \"#utility.yul\":4711:4830   */\n      iszero\n      tag_190\n      jumpi\n        /* \"#utility.yul\":4749:4828   */\n      tag_191\n      tag_106\n      jump\t// in\n    tag_191:\n        /* \"#utility.yul\":4711:4830   */\n    tag_190:\n        /* \"#utility.yul\":4869:4870   */\n      0x00\n        /* \"#utility.yul\":4894:4947   */\n      tag_192\n        /* \"#utility.yul\":4939:4946   */\n      dup5\n        /* \"#utility.yul\":4930:4936   */\n      dup3\n        /* \"#utility.yul\":4919:4928   */\n      dup6\n        /* \"#utility.yul\":4915:4937   */\n      add\n        /* \"#utility.yul\":4894:4947   */\n      tag_117\n      jump\t// in\n    tag_192:\n        /* \"#utility.yul\":4884:4947   */\n      swap2\n      pop\n        /* \"#utility.yul\":4840:4957   */\n      pop\n        /* \"#utility.yul\":4635:4964   */\n      swap3\n      swap2\n      pop\n      pop\n      jump\t// out\n        /* \"#utility.yul\":4970:5060   */\n    tag_118:\n        /* \"#utility.yul\":5004:5011   */\n      0x00\n        /* \"#utility.yul\":5047:5052   */\n      dup2\n        /* \"#utility.yul\":5040:5053   */\n      iszero\n        /* \"#utility.yul\":5033:5054   */\n      iszero\n        /* \"#utility.yul\":5022:5054   */\n      swap1\n      pop\n        /* \"#utility.yul\":4970:5060   */\n      swap2\n      swap1\n      pop\n      jump\t// out\n        /* \"#utility.yul\":5066:5175   */\n    tag_119:\n        /* \"#utility.yul\":5147:5168   */\n      tag_195\n        /* \"#utility.yul\":5162:5167   */\n      dup2\n        /* \"#utility.yul\":5147:5168   */\n      tag_118\n      jump\t// in\n    tag_195:\n        /* \"#utility.yul\":5142:5145   */\n      dup3\n        /* \"#utility.yul\":5135:5169   */\n      mstore\n        /* \"#utility.yul\":5066:5175   */\n      pop\n      pop\n      jump\t// out\n        /* \"#utility.yul\":5181:5391   */\n    tag_38:\n        /* \"#utility.yul\":5268:5272   */\n      0x00\n        /* \"#utility.yul\":5306:5308   */\n      0x20\n        /* \"#utility.yul\":5295:5304   */\n      dup3\n        /* \"#utility.yul\":5291:5309   */\n      add\n        /* \"#utility.yul\":5283:5309   */\n      swap1\n      pop\n        /* \"#utility.yul\":5319:5384   */\n      tag_197\n        /* \"#utility.yul\":5381:5382   */\n      0x00\n        /* \"#utility.yul\":5370:5379   */\n      dup4\n        /* \"#utility.yul\":5366:5383   */\n      add\n        /* \"#utility.yul\":5357:5363   */\n      dup5\n        /* \"#utility.yul\":5319:5384   */\n      tag_119\n      jump\t// in\n    tag_197:\n        /* \"#utility.yul\":5181:5391   */\n      swap3\n      swap2\n      pop\n      pop\n      jump\t// out\n        /* \"#utility.yul\":5397:5515   */\n    tag_120:\n        /* \"#utility.yul\":5484:5508   */\n      tag_199\n        /* \"#utility.yul\":5502:5507   */\n      dup2\n        /* \"#utility.yul\":5484:5508   */\n      tag_115\n      jump\t// in\n    tag_199:\n        /* \"#utility.yul\":5479:5482   */\n      dup3\n        /* \"#utility.yul\":5472:5509   */\n      mstore\n        /* \"#utility.yul\":5397:5515   */\n      pop\n      pop\n      jump\t// out\n        /* \"#utility.yul\":5521:5743   */\n    tag_43:\n        /* \"#utility.yul\":5614:5618   */\n      0x00\n        /* \"#utility.yul\":5652:5654   */\n      0x20\n        /* \"#utility.yul\":5641:5650   */\n      dup3\n        /* \"#utility.yul\":5637:5655   */\n      add\n        /* \"#utility.yul\":5629:5655   */\n      swap1\n      pop\n        /* \"#utility.yul\":5665:5736   */\n      tag_201\n        /* \"#utility.yul\":5733:5734   */\n      0x00\n        /* \"#utility.yul\":5722:5731   */\n      dup4\n        /* \"#utility.yul\":5718:5735   */\n      add\n        /* \"#utility.yul\":5709:5715   */\n      dup5\n        /* \"#utility.yul\":5665:5736   */\n      tag_120\n      jump\t// in\n    tag_201:\n        /* \"#utility.yul\":5521:5743   */\n      swap3\n      swap2\n      pop\n      pop\n      jump\t// out\n        /* \"#utility.yul\":5749:5867   */\n    tag_121:\n        /* \"#utility.yul\":5836:5860   */\n      tag_203\n        /* \"#utility.yul\":5854:5859   */\n      dup2\n        /* \"#utility.yul\":5836:5860   */\n      tag_108\n      jump\t// in\n    tag_203:\n        /* \"#utility.yul\":5831:5834   */\n      dup3\n        /* \"#utility.yul\":5824:5861   */\n      mstore\n        /* \"#utility.yul\":5749:5867   */\n      pop\n      pop\n      jump\t// out\n        /* \"#utility.yul\":5873:6095   */\n    tag_53:\n        /* \"#utility.yul\":5966:5970   */\n      0x00\n        /* \"#utility.yul\":6004:6006   */\n      0x20\n        /* \"#utility.yul\":5993:6002   */\n      dup3\n        /* \"#utility.yul\":5989:6007   */\n      add\n        /* \"#utility.yul\":5981:6007   */\n      swap1\n      pop\n        /* \"#utility.yul\":6017:6088   */\n      tag_205\n        /* \"#utility.yul\":6085:6086   */\n      0x00\n        /* \"#utility.yul\":6074:6083   */\n      dup4\n        /* \"#utility.yul\":6070:6087   */\n      add\n        /* \"#utility.yul\":6061:6067   */\n      dup5\n        /* \"#utility.yul\":6017:6088   */\n      tag_121\n      jump\t// in\n    tag_205:\n        /* \"#utility.yul\":5873:6095   */\n      swap3\n      swap2\n      pop\n      pop\n      jump\t// out\n        /* \"#utility.yul\":6101:6333   */\n    tag_122:\n        /* \"#utility.yul\":6241:6275   */\n      0x4f6e6c792063616d706169676e20636f6e74726163742063616e2063616c6c20\n        /* \"#utility.yul\":6237:6238   */\n      0x00\n        /* \"#utility.yul\":6229:6235   */\n      dup3\n        /* \"#utility.yul\":6225:6239   */\n      add\n        /* \"#utility.yul\":6218:6276   */\n      mstore\n        /* \"#utility.yul\":6310:6325   */\n      0x746869732066756e6374696f6e00000000000000000000000000000000000000\n        /* \"#utility.yul\":6305:6307   */\n      0x20\n        /* \"#utility.yul\":6297:6303   */\n      dup3\n        /* \"#utility.yul\":6293:6308   */\n      add\n        /* \"#utility.yul\":6286:6326   */\n      mstore\n        /* \"#utility.yul\":6101:6333   */\n      pop\n      jump\t// out\n        /* \"#utility.yul\":6339:6705   */\n    tag_123:\n        /* \"#utility.yul\":6481:6484   */\n      0x00\n        /* \"#utility.yul\":6502:6569   */\n      tag_208\n        /* \"#utility.yul\":6566:6568   */\n      0x2d\n        /* \"#utility.yul\":6561:6564   */\n      dup4\n        /* \"#utility.yul\":6502:6569   */\n      tag_100\n      jump\t// in\n    tag_208:\n        /* \"#utility.yul\":6495:6569   */\n      swap2\n      pop\n        /* \"#utility.yul\":6578:6671   */\n      tag_209\n        /* \"#utility.yul\":6667:6670   */\n      dup3\n        /* \"#utility.yul\":6578:6671   */\n      tag_122\n      jump\t// in\n    tag_209:\n        /* \"#utility.yul\":6696:6698   */\n      0x40\n        /* \"#utility.yul\":6691:6694   */\n      dup3\n        /* \"#utility.yul\":6687:6699   */\n      add\n        /* \"#utility.yul\":6680:6699   */\n      swap1\n      pop\n        /* \"#utility.yul\":6339:6705   */\n      swap2\n      swap1\n      pop\n      jump\t// out\n        /* \"#utility.yul\":6711:7130   */\n    tag_57:\n        /* \"#utility.yul\":6877:6881   */\n      0x00\n        /* \"#utility.yul\":6915:6917   */\n      0x20\n        /* \"#utility.yul\":6904:6913   */\n      dup3\n        /* \"#utility.yul\":6900:6918   */\n      add\n        /* \"#utility.yul\":6892:6918   */\n      swap1\n      pop\n        /* \"#utility.yul\":6964:6973   */\n      dup2\n        /* \"#utility.yul\":6958:6962   */\n      dup2\n        /* \"#utility.yul\":6954:6974   */\n      sub\n        /* \"#utility.yul\":6950:6951   */\n      0x00\n        /* \"#utility.yul\":6939:6948   */\n      dup4\n        /* \"#utility.yul\":6935:6952   */\n      add\n        /* \"#utility.yul\":6928:6975   */\n      mstore\n        /* \"#utility.yul\":6992:7123   */\n      tag_211\n        /* \"#utility.yul\":7118:7122   */\n      dup2\n        /* \"#utility.yul\":6992:7123   */\n      tag_123\n      jump\t// in\n    tag_211:\n        /* \"#utility.yul\":6984:7123   */\n      swap1\n      pop\n        /* \"#utility.yul\":6711:7130   */\n      swap2\n      swap1\n      pop\n      jump\t// out\n        /* \"#utility.yul\":7136:7316   */\n    tag_124:\n        /* \"#utility.yul\":7276:7308   */\n      0x4368617269747920616464726573732063616e6e6f74206265207a65726f0000\n        /* \"#utility.yul\":7272:7273   */\n      0x00\n        /* \"#utility.yul\":7264:7270   */\n      dup3\n        /* \"#utility.yul\":7260:7274   */\n      add\n        /* \"#utility.yul\":7253:7309   */\n      mstore\n        /* \"#utility.yul\":7136:7316   */\n      pop\n      jump\t// out\n        /* \"#utility.yul\":7322:7688   */\n    tag_125:\n        /* \"#utility.yul\":7464:7467   */\n      0x00\n        /* \"#utility.yul\":7485:7552   */\n      tag_214\n        /* \"#utility.yul\":7549:7551   */\n      0x1e\n        /* \"#utility.yul\":7544:7547   */\n      dup4\n        /* \"#utility.yul\":7485:7552   */\n      tag_100\n      jump\t// in\n    tag_214:\n        /* \"#utility.yul\":7478:7552   */\n      swap2\n      pop\n        /* \"#utility.yul\":7561:7654   */\n      tag_215\n        /* \"#utility.yul\":7650:7653   */\n      dup3\n        /* \"#utility.yul\":7561:7654   */\n      tag_124\n      jump\t// in\n    tag_215:\n        /* \"#utility.yul\":7679:7681   */\n      0x20\n        /* \"#utility.yul\":7674:7677   */\n      dup3\n        /* \"#utility.yul\":7670:7682   */\n      add\n        /* \"#utility.yul\":7663:7682   */\n      swap1\n      pop\n        /* \"#utility.yul\":7322:7688   */\n      swap2\n      swap1\n      pop\n      jump\t// out\n        /* \"#utility.yul\":7694:8113   */\n    tag_61:\n        /* \"#utility.yul\":7860:7864   */\n      0x00\n        /* \"#utility.yul\":7898:7900   */\n      0x20\n        /* \"#utility.yul\":7887:7896   */\n      dup3\n        /* \"#utility.yul\":7883:7901   */\n      add\n        /* \"#utility.yul\":7875:7901   */\n      swap1\n      pop\n        /* \"#utility.yul\":7947:7956   */\n      dup2\n        /* \"#utility.yul\":7941:7945   */\n      dup2\n        /* \"#utility.yul\":7937:7957   */\n      sub\n        /* \"#utility.yul\":7933:7934   */\n      0x00\n        /* \"#utility.yul\":7922:7931   */\n      dup4\n        /* \"#utility.yul\":7918:7935   */\n      add\n        /* \"#utility.yul\":7911:7958   */\n      mstore\n        /* \"#utility.yul\":7975:8106   */\n      tag_217\n        /* \"#utility.yul\":8101:8105   */\n      dup2\n        /* \"#utility.yul\":7975:8106   */\n      tag_125\n      jump\t// in\n    tag_217:\n        /* \"#utility.yul\":7967:8106   */\n      swap1\n      pop\n        /* \"#utility.yul\":7694:8113   */\n      swap2\n      swap1\n      pop\n      jump\t// out\n        /* \"#utility.yul\":8119:8346   */\n    tag_126:\n        /* \"#utility.yul\":8259:8293   */\n      0x46756e647320616c72656164792072656c656173656420666f72207468697320\n        /* \"#utility.yul\":8255:8256   */\n      0x00\n        /* \"#utility.yul\":8247:8253   */\n      dup3\n        /* \"#utility.yul\":8243:8257   */\n      add\n        /* \"#utility.yul\":8236:8294   */\n      mstore\n        /* \"#utility.yul\":8328:8338   */\n      0x63616d706169676e000000000000000000000000000000000000000000000000\n        /* \"#utility.yul\":8323:8325   */\n      0x20\n        /* \"#utility.yul\":8315:8321   */\n      dup3\n        /* \"#utility.yul\":8311:8326   */\n      add\n        /* \"#utility.yul\":8304:8339   */\n      mstore\n        /* \"#utility.yul\":8119:8346   */\n      pop\n      jump\t// out\n        /* \"#utility.yul\":8352:8718   */\n    tag_127:\n        /* \"#utility.yul\":8494:8497   */\n      0x00\n        /* \"#utility.yul\":8515:8582   */\n      tag_220\n        /* \"#utility.yul\":8579:8581   */\n      0x28\n        /* \"#utility.yul\":8574:8577   */\n      dup4\n        /* \"#utility.yul\":8515:8582   */\n      tag_100\n      jump\t// in\n    tag_220:\n        /* \"#utility.yul\":8508:8582   */\n      swap2\n      pop\n        /* \"#utility.yul\":8591:8684   */\n      tag_221\n        /* \"#utility.yul\":8680:8683   */\n      dup3\n        /* \"#utility.yul\":8591:8684   */\n      tag_126\n      jump\t// in\n    tag_221:\n        /* \"#utility.yul\":8709:8711   */\n      0x40\n        /* \"#utility.yul\":8704:8707   */\n      dup3\n        /* \"#utility.yul\":8700:8712   */\n      add\n        /* \"#utility.yul\":8693:8712   */\n      swap1\n      pop\n        /* \"#utility.yul\":8352:8718   */\n      swap2\n      swap1\n      pop\n      jump\t// out\n        /* \"#utility.yul\":8724:9143   */\n    tag_64:\n        /* \"#utility.yul\":8890:8894   */\n      0x00\n        /* \"#utility.yul\":8928:8930   */\n      0x20\n        /* \"#utility.yul\":8917:8926   */\n      dup3\n        /* \"#utility.yul\":8913:8931   */\n      add\n        /* \"#utility.yul\":8905:8931   */\n      swap1\n      pop\n        /* \"#utility.yul\":8977:8986   */\n      dup2\n        /* \"#utility.yul\":8971:8975   */\n      dup2\n        /* \"#utility.yul\":8967:8987   */\n      sub\n        /* \"#utility.yul\":8963:8964   */\n      0x00\n        /* \"#utility.yul\":8952:8961   */\n      dup4\n        /* \"#utility.yul\":8948:8965   */\n      add\n        /* \"#utility.yul\":8941:8988   */\n      mstore\n        /* \"#utility.yul\":9005:9136   */\n      tag_223\n        /* \"#utility.yul\":9131:9135   */\n      dup2\n        /* \"#utility.yul\":9005:9136   */\n      tag_127\n      jump\t// in\n    tag_223:\n        /* \"#utility.yul\":8997:9136   */\n      swap1\n      pop\n        /* \"#utility.yul\":8724:9143   */\n      swap2\n      swap1\n      pop\n      jump\t// out\n        /* \"#utility.yul\":9149:9372   */\n    tag_128:\n        /* \"#utility.yul\":9289:9323   */\n      0x4e6f2066756e647320617661696c61626c6520666f7220746869732063616d70\n        /* \"#utility.yul\":9285:9286   */\n      0x00\n        /* \"#utility.yul\":9277:9283   */\n      dup3\n        /* \"#utility.yul\":9273:9287   */\n      add\n        /* \"#utility.yul\":9266:9324   */\n      mstore\n        /* \"#utility.yul\":9358:9364   */\n      0x6169676e00000000000000000000000000000000000000000000000000000000\n        /* \"#utility.yul\":9353:9355   */\n      0x20\n        /* \"#utility.yul\":9345:9351   */\n      dup3\n        /* \"#utility.yul\":9341:9356   */\n      add\n        /* \"#utility.yul\":9334:9365   */\n      mstore\n        /* \"#utility.yul\":9149:9372   */\n      pop\n      jump\t// out\n        /* \"#utility.yul\":9378:9744   */\n    tag_129:\n        /* \"#utility.yul\":9520:9523   */\n      0x00\n        /* \"#utility.yul\":9541:9608   */\n      tag_226\n        /* \"#utility.yul\":9605:9607   */\n      0x24\n        /* \"#utility.yul\":9600:9603   */\n      dup4\n        /* \"#utility.yul\":9541:9608   */\n      tag_100\n      jump\t// in\n    tag_226:\n        /* \"#utility.yul\":9534:9608   */\n      swap2\n      pop\n        /* \"#utility.yul\":9617:9710   */\n      tag_227\n        /* \"#utility.yul\":9706:9709   */\n      dup3\n        /* \"#utility.yul\":9617:9710   */\n      tag_128\n      jump\t// in\n    tag_227:\n        /* \"#utility.yul\":9735:9737   */\n      0x40\n        /* \"#utility.yul\":9730:9733   */\n      dup3\n        /* \"#utility.yul\":9726:9738   */\n      add\n        /* \"#utility.yul\":9719:9738   */\n      swap1\n      pop\n        /* \"#utility.yul\":9378:9744   */\n      swap2\n      swap1\n      pop\n      jump\t// out\n        /* \"#utility.yul\":9750:10169   */\n    tag_67:\n        /* \"#utility.yul\":9916:9920   */\n      0x00\n        /* \"#utility.yul\":9954:9956   */\n      0x20\n        /* \"#utility.yul\":9943:9952   */\n      dup3\n        /* \"#utility.yul\":9939:9957   */\n      add\n        /* \"#utility.yul\":9931:9957   */\n      swap1\n      pop\n        /* \"#utility.yul\":10003:10012   */\n      dup2\n        /* \"#utility.yul\":9997:10001   */\n      dup2\n        /* \"#utility.yul\":9993:10013   */\n      sub\n        /* \"#utility.yul\":9989:9990   */\n      0x00\n        /* \"#utility.yul\":9978:9987   */\n      dup4\n        /* \"#utility.yul\":9974:9991   */\n      add\n        /* \"#utility.yul\":9967:10014   */\n      mstore\n        /* \"#utility.yul\":10031:10162   */\n      tag_229\n        /* \"#utility.yul\":10157:10161   */\n      dup2\n        /* \"#utility.yul\":10031:10162   */\n      tag_129\n      jump\t// in\n    tag_229:\n        /* \"#utility.yul\":10023:10162   */\n      swap1\n      pop\n        /* \"#utility.yul\":9750:10169   */\n      swap2\n      swap1\n      pop\n      jump\t// out\n        /* \"#utility.yul\":10175:10322   */\n    tag_130:\n        /* \"#utility.yul\":10276:10287   */\n      0x00\n        /* \"#utility.yul\":10313:10316   */\n      dup2\n        /* \"#utility.yul\":10298:10316   */\n      swap1\n      pop\n        /* \"#utility.yul\":10175:10322   */\n      swap3\n      swap2\n      pop\n      pop\n      jump\t// out\n        /* \"#utility.yul\":10328:10442   */\n    tag_131:\n      pop\n      jump\t// out\n        /* \"#utility.yul\":10448:10846   */\n    tag_132:\n        /* \"#utility.yul\":10607:10610   */\n      0x00\n        /* \"#utility.yul\":10628:10711   */\n      tag_233\n        /* \"#utility.yul\":10709:10710   */\n      0x00\n        /* \"#utility.yul\":10704:10707   */\n      dup4\n        /* \"#utility.yul\":10628:10711   */\n      tag_130\n      jump\t// in\n    tag_233:\n        /* \"#utility.yul\":10621:10711   */\n      swap2\n      pop\n        /* \"#utility.yul\":10720:10813   */\n      tag_234\n        /* \"#utility.yul\":10809:10812   */\n      dup3\n        /* \"#utility.yul\":10720:10813   */\n      tag_131\n      jump\t// in\n    tag_234:\n        /* \"#utility.yul\":10838:10839   */\n      0x00\n        /* \"#utility.yul\":10833:10836   */\n      dup3\n        /* \"#utility.yul\":10829:10840   */\n      add\n        /* \"#utility.yul\":10822:10840   */\n      swap1\n      pop\n        /* \"#utility.yul\":10448:10846   */\n      swap2\n      swap1\n      pop\n      jump\t// out\n        /* \"#utility.yul\":10852:11231   */\n    tag_69:\n        /* \"#utility.yul\":11036:11039   */\n      0x00\n        /* \"#utility.yul\":11058:11205   */\n      tag_236\n        /* \"#utility.yul\":11201:11204   */\n      dup3\n        /* \"#utility.yul\":11058:11205   */\n      tag_132\n      jump\t// in\n    tag_236:\n        /* \"#utility.yul\":11051:11205   */\n      swap2\n      pop\n        /* \"#utility.yul\":11222:11225   */\n      dup2\n        /* \"#utility.yul\":11215:11225   */\n      swap1\n      pop\n        /* \"#utility.yul\":10852:11231   */\n      swap2\n      swap1\n      pop\n      jump\t// out\n        /* \"#utility.yul\":11237:11417   */\n    tag_133:\n        /* \"#utility.yul\":11377:11409   */\n      0x455448207472616e7366657220746f2063686172697479206661696c65640000\n        /* \"#utility.yul\":11373:11374   */\n      0x00\n        /* \"#utility.yul\":11365:11371   */\n      dup3\n        /* \"#utility.yul\":11361:11375   */\n      add\n        /* \"#utility.yul\":11354:11410   */\n      mstore\n        /* \"#utility.yul\":11237:11417   */\n      pop\n      jump\t// out\n        /* \"#utility.yul\":11423:11789   */\n    tag_134:\n        /* \"#utility.yul\":11565:11568   */\n      0x00\n        /* \"#utility.yul\":11586:11653   */\n      tag_239\n        /* \"#utility.yul\":11650:11652   */\n      0x1e\n        /* \"#utility.yul\":11645:11648   */\n      dup4\n        /* \"#utility.yul\":11586:11653   */\n      tag_100\n      jump\t// in\n    tag_239:\n        /* \"#utility.yul\":11579:11653   */\n      swap2\n      pop\n        /* \"#utility.yul\":11662:11755   */\n      tag_240\n        /* \"#utility.yul\":11751:11754   */\n      dup3\n        /* \"#utility.yul\":11662:11755   */\n      tag_133\n      jump\t// in\n    tag_240:\n        /* \"#utility.yul\":11780:11782   */\n      0x20\n        /* \"#utility.yul\":11775:11778   */\n      dup3\n        /* \"#utility.yul\":11771:11783   */\n      add\n        /* \"#utility.yul\":11764:11783   */\n      swap1\n      pop\n        /* \"#utility.yul\":11423:11789   */\n      swap2\n      swap1\n      pop\n      jump\t// out\n        /* \"#utility.yul\":11795:12214   */\n    tag_75:\n        /* \"#utility.yul\":11961:11965   */\n      0x00\n        /* \"#utility.yul\":11999:12001   */\n      0x20\n        /* \"#utility.yul\":11988:11997   */\n      dup3\n        /* \"#utility.yul\":11984:12002   */\n      add\n        /* \"#utility.yul\":11976:12002   */\n      swap1\n      pop\n        /* \"#utility.yul\":12048:12057   */\n      dup2\n        /* \"#utility.yul\":12042:12046   */\n      dup2\n        /* \"#utility.yul\":12038:12058   */\n      sub\n        /* \"#utility.yul\":12034:12035   */\n      0x00\n        /* \"#utility.yul\":12023:12032   */\n      dup4\n        /* \"#utility.yul\":12019:12036   */\n      add\n        /* \"#utility.yul\":12012:12059   */\n      mstore\n        /* \"#utility.yul\":12076:12207   */\n      tag_242\n        /* \"#utility.yul\":12202:12206   */\n      dup2\n        /* \"#utility.yul\":12076:12207   */\n      tag_134\n      jump\t// in\n    tag_242:\n        /* \"#utility.yul\":12068:12207   */\n      swap1\n      pop\n        /* \"#utility.yul\":11795:12214   */\n      swap2\n      swap1\n      pop\n      jump\t// out\n        /* \"#utility.yul\":12220:12447   */\n    tag_135:\n        /* \"#utility.yul\":12360:12394   */\n      0x4465706f73697420616d6f756e74206d75737420626520677265617465722074\n        /* \"#utility.yul\":12356:12357   */\n      0x00\n        /* \"#utility.yul\":12348:12354   */\n      dup3\n        /* \"#utility.yul\":12344:12358   */\n      add\n        /* \"#utility.yul\":12337:12395   */\n      mstore\n        /* \"#utility.yul\":12429:12439   */\n      0x68616e207a65726f000000000000000000000000000000000000000000000000\n        /* \"#utility.yul\":12424:12426   */\n      0x20\n        /* \"#utility.yul\":12416:12422   */\n      dup3\n        /* \"#utility.yul\":12412:12427   */\n      add\n        /* \"#utility.yul\":12405:12440   */\n      mstore\n        /* \"#utility.yul\":12220:12447   */\n      pop\n      jump\t// out\n        /* \"#utility.yul\":12453:12819   */\n    tag_136:\n        /* \"#utility.yul\":12595:12598   */\n      0x00\n        /* \"#utility.yul\":12616:12683   */\n      tag_245\n        /* \"#utility.yul\":12680:12682   */\n      0x28\n        /* \"#utility.yul\":12675:12678   */\n      dup4\n        /* \"#utility.yul\":12616:12683   */\n      tag_100\n      jump\t// in\n    tag_245:\n        /* \"#utility.yul\":12609:12683   */\n      swap2\n      pop\n        /* \"#utility.yul\":12692:12785   */\n      tag_246\n        /* \"#utility.yul\":12781:12784   */\n      dup3\n        /* \"#utility.yul\":12692:12785   */\n      tag_135\n      jump\t// in\n    tag_246:\n        /* \"#utility.yul\":12810:12812   */\n      0x40\n        /* \"#utility.yul\":12805:12808   */\n      dup3\n        /* \"#utility.yul\":12801:12813   */\n      add\n        /* \"#utility.yul\":12794:12813   */\n      swap1\n      pop\n        /* \"#utility.yul\":12453:12819   */\n      swap2\n      swap1\n      pop\n      jump\t// out\n        /* \"#utility.yul\":12825:13244   */\n    tag_83:\n        /* \"#utility.yul\":12991:12995   */\n      0x00\n        /* \"#utility.yul\":13029:13031   */\n      0x20\n        /* \"#utility.yul\":13018:13027   */\n      dup3\n        /* \"#utility.yul\":13014:13032   */\n      add\n        /* \"#utility.yul\":13006:13032   */\n      swap1\n      pop\n        /* \"#utility.yul\":13078:13087   */\n      dup2\n        /* \"#utility.yul\":13072:13076   */\n      dup2\n        /* \"#utility.yul\":13068:13088   */\n      sub\n        /* \"#utility.yul\":13064:13065   */\n      0x00\n        /* \"#utility.yul\":13053:13062   */\n      dup4\n        /* \"#utility.yul\":13049:13066   */\n      add\n        /* \"#utility.yul\":13042:13089   */\n      mstore\n        /* \"#utility.yul\":13106:13237   */\n      tag_248\n        /* \"#utility.yul\":13232:13236   */\n      dup2\n        /* \"#utility.yul\":13106:13237   */\n      tag_136\n      jump\t// in\n    tag_248:\n        /* \"#utility.yul\":13098:13237   */\n      swap1\n      pop\n        /* \"#utility.yul\":12825:13244   */\n      swap2\n      swap1\n      pop\n      jump\t// out\n        /* \"#utility.yul\":13250:13430   */\n    tag_137:\n        /* \"#utility.yul\":13298:13375   */\n      0x4e487b7100000000000000000000000000000000000000000000000000000000\n        /* \"#utility.yul\":13295:13296   */\n      0x00\n        /* \"#utility.yul\":13288:13376   */\n      mstore\n        /* \"#utility.yul\":13395:13399   */\n      0x11\n        /* \"#utility.yul\":13392:13393   */\n      0x04\n        /* \"#utility.yul\":13385:13400   */\n      mstore\n        /* \"#utility.yul\":13419:13423   */\n      0x24\n        /* \"#utility.yul\":13416:13417   */\n      0x00\n        /* \"#utility.yul\":13409:13424   */\n      revert\n        /* \"#utility.yul\":13436:13627   */\n    tag_87:\n        /* \"#utility.yul\":13476:13479   */\n      0x00\n        /* \"#utility.yul\":13495:13515   */\n      tag_251\n        /* \"#utility.yul\":13513:13514   */\n      dup3\n        /* \"#utility.yul\":13495:13515   */\n      tag_108\n      jump\t// in\n    tag_251:\n        /* \"#utility.yul\":13490:13515   */\n      swap2\n      pop\n        /* \"#utility.yul\":13529:13549   */\n      tag_252\n        /* \"#utility.yul\":13547:13548   */\n      dup4\n        /* \"#utility.yul\":13529:13549   */\n      tag_108\n      jump\t// in\n    tag_252:\n        /* \"#utility.yul\":13524:13549   */\n      swap3\n      pop\n        /* \"#utility.yul\":13572:13573   */\n      dup3\n        /* \"#utility.yul\":13569:13570   */\n      dup3\n        /* \"#utility.yul\":13565:13574   */\n      add\n        /* \"#utility.yul\":13558:13574   */\n      swap1\n      pop\n        /* \"#utility.yul\":13593:13596   */\n      dup1\n        /* \"#utility.yul\":13590:13591   */\n      dup3\n        /* \"#utility.yul\":13587:13597   */\n      gt\n        /* \"#utility.yul\":13584:13620   */\n      iszero\n      tag_253\n      jumpi\n        /* \"#utility.yul\":13600:13618   */\n      tag_254\n      tag_137\n      jump\t// in\n    tag_254:\n        /* \"#utility.yul\":13584:13620   */\n    tag_253:\n        /* \"#utility.yul\":13436:13627   */\n      swap3\n      swap2\n      pop\n      pop\n      jump\t// out\n        /* \"#utility.yul\":13633:13853   */\n    tag_138:\n        /* \"#utility.yul\":13773:13807   */\n      0x4f6e6c792061646d696e2063616e2063616c6c20746869732066756e6374696f\n        /* \"#utility.yul\":13769:13770   */\n      0x00\n        /* \"#utility.yul\":13761:13767   */\n      dup3\n        /* \"#utility.yul\":13757:13771   */\n      add\n        /* \"#utility.yul\":13750:13808   */\n      mstore\n        /* \"#utility.yul\":13842:13845   */\n      0x6e00000000000000000000000000000000000000000000000000000000000000\n        /* \"#utility.yul\":13837:13839   */\n      0x20\n        /* \"#utility.yul\":13829:13835   */\n      dup3\n        /* \"#utility.yul\":13825:13840   */\n      add\n        /* \"#utility.yul\":13818:13846   */\n      mstore\n        /* \"#utility.yul\":13633:13853   */\n      pop\n      jump\t// out\n        /* \"#utility.yul\":13859:14225   */\n    tag_139:\n        /* \"#utility.yul\":14001:14004   */\n      0x00\n        /* \"#utility.yul\":14022:14089   */\n      tag_257\n        /* \"#utility.yul\":14086:14088   */\n      0x21\n        /* \"#utility.yul\":14081:14084   */\n      dup4\n        /* \"#utility.yul\":14022:14089   */\n      tag_100\n      jump\t// in\n    tag_257:\n        /* \"#utility.yul\":14015:14089   */\n      swap2\n      pop\n        /* \"#utility.yul\":14098:14191   */\n      tag_258\n        /* \"#utility.yul\":14187:14190   */\n      dup3\n        /* \"#utility.yul\":14098:14191   */\n      tag_138\n      jump\t// in\n    tag_258:\n        /* \"#utility.yul\":14216:14218   */\n      0x40\n        /* \"#utility.yul\":14211:14214   */\n      dup3\n        /* \"#utility.yul\":14207:14219   */\n      add\n        /* \"#utility.yul\":14200:14219   */\n      swap1\n      pop\n        /* \"#utility.yul\":13859:14225   */\n      swap2\n      swap1\n      pop\n      jump\t// out\n        /* \"#utility.yul\":14231:14650   */\n    tag_92:\n        /* \"#utility.yul\":14397:14401   */\n      0x00\n        /* \"#utility.yul\":14435:14437   */\n      0x20\n        /* \"#utility.yul\":14424:14433   */\n      dup3\n        /* \"#utility.yul\":14420:14438   */\n      add\n        /* \"#utility.yul\":14412:14438   */\n      swap1\n      pop\n        /* \"#utility.yul\":14484:14493   */\n      dup2\n        /* \"#utility.yul\":14478:14482   */\n      dup2\n        /* \"#utility.yul\":14474:14494   */\n      sub\n        /* \"#utility.yul\":14470:14471   */\n      0x00\n        /* \"#utility.yul\":14459:14468   */\n      dup4\n        /* \"#utility.yul\":14455:14472   */\n      add\n        /* \"#utility.yul\":14448:14495   */\n      mstore\n        /* \"#utility.yul\":14512:14643   */\n      tag_260\n        /* \"#utility.yul\":14638:14642   */\n      dup2\n        /* \"#utility.yul\":14512:14643   */\n      tag_139\n      jump\t// in\n    tag_260:\n        /* \"#utility.yul\":14504:14643   */\n      swap1\n      pop\n        /* \"#utility.yul\":14231:14650   */\n      swap2\n      swap1\n      pop\n      jump\t// out\n        /* \"#utility.yul\":14656:14883   */\n    tag_140:\n        /* \"#utility.yul\":14796:14830   */\n      0x43616d706169676e20636f6e747261637420616464726573732063616e6e6f74\n        /* \"#utility.yul\":14792:14793   */\n      0x00\n        /* \"#utility.yul\":14784:14790   */\n      dup3\n        /* \"#utility.yul\":14780:14794   */\n      add\n        /* \"#utility.yul\":14773:14831   */\n      mstore\n        /* \"#utility.yul\":14865:14875   */\n      0x206265207a65726f000000000000000000000000000000000000000000000000\n        /* \"#utility.yul\":14860:14862   */\n      0x20\n        /* \"#utility.yul\":14852:14858   */\n      dup3\n        /* \"#utility.yul\":14848:14863   */\n      add\n        /* \"#utility.yul\":14841:14876   */\n      mstore\n        /* \"#utility.yul\":14656:14883   */\n      pop\n      jump\t// out\n        /* \"#utility.yul\":14889:15255   */\n    tag_141:\n        /* \"#utility.yul\":15031:15034   */\n      0x00\n        /* \"#utility.yul\":15052:15119   */\n      tag_263\n        /* \"#utility.yul\":15116:15118   */\n      0x28\n        /* \"#utility.yul\":15111:15114   */\n      dup4\n        /* \"#utility.yul\":15052:15119   */\n      tag_100\n      jump\t// in\n    tag_263:\n        /* \"#utility.yul\":15045:15119   */\n      swap2\n      pop\n        /* \"#utility.yul\":15128:15221   */\n      tag_264\n        /* \"#utility.yul\":15217:15220   */\n      dup3\n        /* \"#utility.yul\":15128:15221   */\n      tag_140\n      jump\t// in\n    tag_264:\n        /* \"#utility.yul\":15246:15248   */\n      0x40\n        /* \"#utility.yul\":15241:15244   */\n      dup3\n        /* \"#utility.yul\":15237:15249   */\n      add\n        /* \"#utility.yul\":15230:15249   */\n      swap1\n      pop\n        /* \"#utility.yul\":14889:15255   */\n      swap2\n      swap1\n      pop\n      jump\t// out\n        /* \"#utility.yul\":15261:15680   */\n    tag_96:\n        /* \"#utility.yul\":15427:15431   */\n      0x00\n        /* \"#utility.yul\":15465:15467   */\n      0x20\n        /* \"#utility.yul\":15454:15463   */\n      dup3\n        /* \"#utility.yul\":15450:15468   */\n      add\n        /* \"#utility.yul\":15442:15468   */\n      swap1\n      pop\n        /* \"#utility.yul\":15514:15523   */\n      dup2\n        /* \"#utility.yul\":15508:15512   */\n      dup2\n        /* \"#utility.yul\":15504:15524   */\n      sub\n        /* \"#utility.yul\":15500:15501   */\n      0x00\n        /* \"#utility.yul\":15489:15498   */\n      dup4\n        /* \"#utility.yul\":15485:15502   */\n      add\n        /* \"#utility.yul\":15478:15525   */\n      mstore\n        /* \"#utility.yul\":15542:15673   */\n      tag_266\n        /* \"#utility.yul\":15668:15672   */\n      dup2\n        /* \"#utility.yul\":15542:15673   */\n      tag_141\n      jump\t// in\n    tag_266:\n        /* \"#utility.yul\":15534:15673   */\n      swap1\n      pop\n        /* \"#utility.yul\":15261:15680   */\n      swap2\n      swap1\n      pop\n      jump\t// out\n\n    auxdata: 0xa26469706673582212207a821fa044fa197fbb9197586dfdf2d2701124200c6d4664adc730940fd2b20864736f6c634300081e0033\n}\n",
				"bytecode": {
					"linkReferences": {},
					"object": "6080604052348015600e575f5ffd5b50335f5f6101000a81548173ffffffffffffffffffffffffffffffffffffffff021916908373ffffffffffffffffffffffffffffffffffffffff1602179055506110978061005b5f395ff3fe608060405260043610610073575f3560e01c806373962b261161004d57806373962b261461015a5780638e98f44d14610196578063f851a440146101c0578063fce60903146101ea576100b3565b80631af23a59146100ee5780633b76594d14610116578063669be2d614610132576100b3565b366100b3576040517f08c379a00000000000000000000000000000000000000000000000000000000081526004016100aa90610933565b60405180910390fd5b6040517f08c379a00000000000000000000000000000000000000000000000000000000081526004016100e59061099b565b60405180910390fd5b3480156100f9575f5ffd5b50610114600480360381019061010f9190610a4a565b610226565b005b610130600480360381019061012b9190610a88565b610514565b005b34801561013d575f5ffd5b5061015860048036038101906101539190610aee565b6106a5565b005b348015610165575f5ffd5b50610180600480360381019061017b9190610a88565b610827565b60405161018d9190610b33565b60405180910390f35b3480156101a1575f5ffd5b506101aa61084d565b6040516101b79190610b5b565b60405180910390f35b3480156101cb575f5ffd5b506101d4610875565b6040516101e19190610b5b565b60405180910390f35b3480156101f5575f5ffd5b50610210600480360381019061020b9190610a88565b610899565b60405161021d9190610b83565b60405180910390f35b60015f9054906101000a900473ffffffffffffffffffffffffffffffffffffffff1673ffffffffffffffffffffffffffffffffffffffff163373ffffffffffffffffffffffffffffffffffffffff16146102b5576040517f08c379a00000000000000000000000000000000000000000000000000000000081526004016102ac90610c0c565b60405180910390fd5b5f73ffffffffffffffffffffffffffffffffffffffff168173ffffffffffffffffffffffffffffffffffffffff1603610323576040517f08c379a000000000000000000000000000000000000000000000000000000000815260040161031a90610c74565b60405180910390fd5b60035f8381526020019081526020015f205f9054906101000a900460ff1615610381576040517f08c379a000000000000000000000000000000000000000000000000000000000815260040161037890610d02565b60405180910390fd5b5f60025f8481526020019081526020015f205490505f81116103d8576040517f08c379a00000000000000000000000000000000000000000000000000000000081526004016103cf90610d90565b60405180910390fd5b600160035f8581526020019081526020015f205f6101000a81548160ff0219169083151502179055505f60025f8581526020019081526020015f20819055505f8273ffffffffffffffffffffffffffffffffffffffff168260405161043c90610ddb565b5f6040518083038185875af1925050503d805f8114610476576040519150601f19603f3d011682016040523d82523d5f602084013e61047b565b606091505b50509050806104bf576040517f08c379a00000000000000000000000000000000000000000000000000000000081526004016104b690610e39565b60405180910390fd5b8273ffffffffffffffffffffffffffffffffffffffff16847f6e3c6096795c8298a218b2cfb8bde42726ff7c9a3d27b4d3ba41ab7f74feb5fb846040516105069190610b83565b60405180910390a350505050565b60015f9054906101000a900473ffffffffffffffffffffffffffffffffffffffff1673ffffffffffffffffffffffffffffffffffffffff163373ffffffffffffffffffffffffffffffffffffffff16146105a3576040517f08c379a000000000000000000000000000000000000000000000000000000000815260040161059a90610c0c565b60405180910390fd5b5f34116105e5576040517f08c379a00000000000000000000000000000000000000000000000000000000081526004016105dc90610ec7565b60405180910390fd5b60035f8281526020019081526020015f205f9054906101000a900460ff1615610643576040517f08c379a000000000000000000000000000000000000000000000000000000000815260040161063a90610d02565b60405180910390fd5b3460025f8381526020019081526020015f205f8282546106639190610f12565b92505081905550807f26679fa1f3868c950e9362f1106cf73f3318de0280e0411a3c68e4b463eadd4f3460405161069a9190610b83565b60405180910390a250565b5f5f9054906101000a900473ffffffffffffffffffffffffffffffffffffffff1673ffffffffffffffffffffffffffffffffffffffff163373ffffffffffffffffffffffffffffffffffffffff1614610733576040517f08c379a000000000000000000000000000000000000000000000000000000000815260040161072a90610fb5565b60405180910390fd5b5f73ffffffffffffffffffffffffffffffffffffffff168173ffffffffffffffffffffffffffffffffffffffff16036107a1576040517f08c379a000000000000000000000000000000000000000000000000000000000815260040161079890611043565b60405180910390fd5b8060015f6101000a81548173ffffffffffffffffffffffffffffffffffffffff021916908373ffffffffffffffffffffffffffffffffffffffff1602179055508073ffffffffffffffffffffffffffffffffffffffff167f6491c96e1537733a87c87454e5b4c875a5d385cedde992c8df5817ab5a1995bc60405160405180910390a250565b5f60035f8381526020019081526020015f205f9054906101000a900460ff169050919050565b5f60015f9054906101000a900473ffffffffffffffffffffffffffffffffffffffff16905090565b5f5f9054906101000a900473ffffffffffffffffffffffffffffffffffffffff1681565b5f60025f8381526020019081526020015f20549050919050565b5f82825260208201905092915050565b7f557365206465706f73697446756e6473207468726f756768207468652063616d5f8201527f706169676e20636f6e7472616374000000000000000000000000000000000000602082015250565b5f61091d602e836108b3565b9150610928826108c3565b604082019050919050565b5f6020820190508181035f83015261094a81610911565b9050919050565b7f496e76616c696420657363726f7720636f6e74726163742063616c6c000000005f82015250565b5f610985601c836108b3565b915061099082610951565b602082019050919050565b5f6020820190508181035f8301526109b281610979565b9050919050565b5f5ffd5b5f819050919050565b6109cf816109bd565b81146109d9575f5ffd5b50565b5f813590506109ea816109c6565b92915050565b5f73ffffffffffffffffffffffffffffffffffffffff82169050919050565b5f610a19826109f0565b9050919050565b610a2981610a0f565b8114610a33575f5ffd5b50565b5f81359050610a4481610a20565b92915050565b5f5f60408385031215610a6057610a5f6109b9565b5b5f610a6d858286016109dc565b9250506020610a7e85828601610a36565b9150509250929050565b5f60208284031215610a9d57610a9c6109b9565b5b5f610aaa848285016109dc565b91505092915050565b5f610abd826109f0565b9050919050565b610acd81610ab3565b8114610ad7575f5ffd5b50565b5f81359050610ae881610ac4565b92915050565b5f60208284031215610b0357610b026109b9565b5b5f610b1084828501610ada565b91505092915050565b5f8115159050919050565b610b2d81610b19565b82525050565b5f602082019050610b465f830184610b24565b92915050565b610b5581610ab3565b82525050565b5f602082019050610b6e5f830184610b4c565b92915050565b610b7d816109bd565b82525050565b5f602082019050610b965f830184610b74565b92915050565b7f4f6e6c792063616d706169676e20636f6e74726163742063616e2063616c6c205f8201527f746869732066756e6374696f6e00000000000000000000000000000000000000602082015250565b5f610bf6602d836108b3565b9150610c0182610b9c565b604082019050919050565b5f6020820190508181035f830152610c2381610bea565b9050919050565b7f4368617269747920616464726573732063616e6e6f74206265207a65726f00005f82015250565b5f610c5e601e836108b3565b9150610c6982610c2a565b602082019050919050565b5f6020820190508181035f830152610c8b81610c52565b9050919050565b7f46756e647320616c72656164792072656c656173656420666f722074686973205f8201527f63616d706169676e000000000000000000000000000000000000000000000000602082015250565b5f610cec6028836108b3565b9150610cf782610c92565b604082019050919050565b5f6020820190508181035f830152610d1981610ce0565b9050919050565b7f4e6f2066756e647320617661696c61626c6520666f7220746869732063616d705f8201527f6169676e00000000000000000000000000000000000000000000000000000000602082015250565b5f610d7a6024836108b3565b9150610d8582610d20565b604082019050919050565b5f6020820190508181035f830152610da781610d6e565b9050919050565b5f81905092915050565b50565b5f610dc65f83610dae565b9150610dd182610db8565b5f82019050919050565b5f610de582610dbb565b9150819050919050565b7f455448207472616e7366657220746f2063686172697479206661696c656400005f82015250565b5f610e23601e836108b3565b9150610e2e82610def565b602082019050919050565b5f6020820190508181035f830152610e5081610e17565b9050919050565b7f4465706f73697420616d6f756e74206d757374206265206772656174657220745f8201527f68616e207a65726f000000000000000000000000000000000000000000000000602082015250565b5f610eb16028836108b3565b9150610ebc82610e57565b604082019050919050565b5f6020820190508181035f830152610ede81610ea5565b9050919050565b7f4e487b71000000000000000000000000000000000000000000000000000000005f52601160045260245ffd5b5f610f1c826109bd565b9150610f27836109bd565b9250828201905080821115610f3f57610f3e610ee5565b5b92915050565b7f4f6e6c792061646d696e2063616e2063616c6c20746869732066756e6374696f5f8201527f6e00000000000000000000000000000000000000000000000000000000000000602082015250565b5f610f9f6021836108b3565b9150610faa82610f45565b604082019050919050565b5f6020820190508181035f830152610fcc81610f93565b9050919050565b7f43616d706169676e20636f6e747261637420616464726573732063616e6e6f745f8201527f206265207a65726f000000000000000000000000000000000000000000000000602082015250565b5f61102d6028836108b3565b915061103882610fd3565b604082019050919050565b5f6020820190508181035f83015261105a81611021565b905091905056fea26469706673582212207a821fa044fa197fbb9197586dfdf2d2701124200c6d4664adc730940fd2b20864736f6c634300081e0033",
					"opcodes": "PUSH1 0x80 PUSH1 0x40 MSTORE CALLVALUE DUP1 ISZERO PUSH1 0xE JUMPI PUSH0 PUSH0 REVERT JUMPDEST POP CALLER PUSH0 PUSH0 PUSH2 0x100 EXP DUP2 SLOAD DUP2 PUSH20 0xFFFFFFFFFFFFFFFFFFFFFFFFFFFFFFFFFFFFFFFF MUL NOT AND SWAP1 DUP4 PUSH20 0xFFFFFFFFFFFFFFFFFFFFFFFFFFFFFFFFFFFFFFFF AND MUL OR SWAP1 SSTORE POP PUSH2 0x1097 DUP1 PUSH2 0x5B PUSH0 CODECOPY PUSH0 RETURN INVALID PUSH1 0x80 PUSH1 0x40 MSTORE PUSH1 0x4 CALLDATASIZE LT PUSH2 0x73 JUMPI PUSH0 CALLDATALOAD PUSH1 0xE0 SHR DUP1 PUSH4 0x73962B26 GT PUSH2 0x4D JUMPI DUP1 PUSH4 0x73962B26 EQ PUSH2 0x15A JUMPI DUP1 PUSH4 0x8E98F44D EQ PUSH2 0x196 JUMPI DUP1 PUSH4 0xF851A440 EQ PUSH2 0x1C0 JUMPI DUP1 PUSH4 0xFCE60903 EQ PUSH2 0x1EA JUMPI PUSH2 0xB3 JUMP JUMPDEST DUP1 PUSH4 0x1AF23A59 EQ PUSH2 0xEE JUMPI DUP1 PUSH4 0x3B76594D EQ PUSH2 0x116 JUMPI DUP1 PUSH4 0x669BE2D6 EQ PUSH2 0x132 JUMPI PUSH2 0xB3 JUMP JUMPDEST CALLDATASIZE PUSH2 0xB3 JUMPI PUSH1 0x40 MLOAD PUSH32 0x8C379A000000000000000000000000000000000000000000000000000000000 DUP2 MSTORE PUSH1 0x4 ADD PUSH2 0xAA SWAP1 PUSH2 0x933 JUMP JUMPDEST PUSH1 0x40 MLOAD DUP1 SWAP2 SUB SWAP1 REVERT JUMPDEST PUSH1 0x40 MLOAD PUSH32 0x8C379A000000000000000000000000000000000000000000000000000000000 DUP2 MSTORE PUSH1 0x4 ADD PUSH2 0xE5 SWAP1 PUSH2 0x99B JUMP JUMPDEST PUSH1 0x40 MLOAD DUP1 SWAP2 SUB SWAP1 REVERT JUMPDEST CALLVALUE DUP1 ISZERO PUSH2 0xF9 JUMPI PUSH0 PUSH0 REVERT JUMPDEST POP PUSH2 0x114 PUSH1 0x4 DUP1 CALLDATASIZE SUB DUP2 ADD SWAP1 PUSH2 0x10F SWAP2 SWAP1 PUSH2 0xA4A JUMP JUMPDEST PUSH2 0x226 JUMP JUMPDEST STOP JUMPDEST PUSH2 0x130 PUSH1 0x4 DUP1 CALLDATASIZE SUB DUP2 ADD SWAP1 PUSH2 0x12B SWAP2 SWAP1 PUSH2 0xA88 JUMP JUMPDEST PUSH2 0x514 JUMP JUMPDEST STOP JUMPDEST CALLVALUE DUP1 ISZERO PUSH2 0x13D JUMPI PUSH0 PUSH0 REVERT JUMPDEST POP PUSH2 0x158 PUSH1 0x4 DUP1 CALLDATASIZE SUB DUP2 ADD SWAP1 PUSH2 0x153 SWAP2 SWAP1 PUSH2 0xAEE JUMP JUMPDEST PUSH2 0x6A5 JUMP JUMPDEST STOP JUMPDEST CALLVALUE DUP1 ISZERO PUSH2 0x165 JUMPI PUSH0 PUSH0 REVERT JUMPDEST POP PUSH2 0x180 PUSH1 0x4 DUP1 CALLDATASIZE SUB DUP2 ADD SWAP1 PUSH2 0x17B SWAP2 SWAP1 PUSH2 0xA88 JUMP JUMPDEST PUSH2 0x827 JUMP JUMPDEST PUSH1 0x40 MLOAD PUSH2 0x18D SWAP2 SWAP1 PUSH2 0xB33 JUMP JUMPDEST PUSH1 0x40 MLOAD DUP1 SWAP2 SUB SWAP1 RETURN JUMPDEST CALLVALUE DUP1 ISZERO PUSH2 0x1A1 JUMPI PUSH0 PUSH0 REVERT JUMPDEST POP PUSH2 0x1AA PUSH2 0x84D JUMP JUMPDEST PUSH1 0x40 MLOAD PUSH2 0x1B7 SWAP2 SWAP1 PUSH2 0xB5B JUMP JUMPDEST PUSH1 0x40 MLOAD DUP1 SWAP2 SUB SWAP1 RETURN JUMPDEST CALLVALUE DUP1 ISZERO PUSH2 0x1CB JUMPI PUSH0 PUSH0 REVERT JUMPDEST POP PUSH2 0x1D4 PUSH2 0x875 JUMP JUMPDEST PUSH1 0x40 MLOAD PUSH2 0x1E1 SWAP2 SWAP1 PUSH2 0xB5B JUMP JUMPDEST PUSH1 0x40 MLOAD DUP1 SWAP2 SUB SWAP1 RETURN JUMPDEST CALLVALUE DUP1 ISZERO PUSH2 0x1F5 JUMPI PUSH0 PUSH0 REVERT JUMPDEST POP PUSH2 0x210 PUSH1 0x4 DUP1 CALLDATASIZE SUB DUP2 ADD SWAP1 PUSH2 0x20B SWAP2 SWAP1 PUSH2 0xA88 JUMP JUMPDEST PUSH2 0x899 JUMP JUMPDEST PUSH1 0x40 MLOAD PUSH2 0x21D SWAP2 SWAP1 PUSH2 0xB83 JUMP JUMPDEST PUSH1 0x40 MLOAD DUP1 SWAP2 SUB SWAP1 RETURN JUMPDEST PUSH1 0x1 PUSH0 SWAP1 SLOAD SWAP1 PUSH2 0x100 EXP SWAP1 DIV PUSH20 0xFFFFFFFFFFFFFFFFFFFFFFFFFFFFFFFFFFFFFFFF AND PUSH20 0xFFFFFFFFFFFFFFFFFFFFFFFFFFFFFFFFFFFFFFFF AND CALLER PUSH20 0xFFFFFFFFFFFFFFFFFFFFFFFFFFFFFFFFFFFFFFFF AND EQ PUSH2 0x2B5 JUMPI PUSH1 0x40 MLOAD PUSH32 0x8C379A000000000000000000000000000000000000000000000000000000000 DUP2 MSTORE PUSH1 0x4 ADD PUSH2 0x2AC SWAP1 PUSH2 0xC0C JUMP JUMPDEST PUSH1 0x40 MLOAD DUP1 SWAP2 SUB SWAP1 REVERT JUMPDEST PUSH0 PUSH20 0xFFFFFFFFFFFFFFFFFFFFFFFFFFFFFFFFFFFFFFFF AND DUP2 PUSH20 0xFFFFFFFFFFFFFFFFFFFFFFFFFFFFFFFFFFFFFFFF AND SUB PUSH2 0x323 JUMPI PUSH1 0x40 MLOAD PUSH32 0x8C379A000000000000000000000000000000000000000000000000000000000 DUP2 MSTORE PUSH1 0x4 ADD PUSH2 0x31A SWAP1 PUSH2 0xC74 JUMP JUMPDEST PUSH1 0x40 MLOAD DUP1 SWAP2 SUB SWAP1 REVERT JUMPDEST PUSH1 0x3 PUSH0 DUP4 DUP2 MSTORE PUSH1 0x20 ADD SWAP1 DUP2 MSTORE PUSH1 0x20 ADD PUSH0 KECCAK256 PUSH0 SWAP1 SLOAD SWAP1 PUSH2 0x100 EXP SWAP1 DIV PUSH1 0xFF AND ISZERO PUSH2 0x381 JUMPI PUSH1 0x40 MLOAD PUSH32 0x8C379A000000000000000000000000000000000000000000000000000000000 DUP2 MSTORE PUSH1 0x4 ADD PUSH2 0x378 SWAP1 PUSH2 0xD02 JUMP JUMPDEST PUSH1 0x40 MLOAD DUP1 SWAP2 SUB SWAP1 REVERT JUMPDEST PUSH0 PUSH1 0x2 PUSH0 DUP5 DUP2 MSTORE PUSH1 0x20 ADD SWAP1 DUP2 MSTORE PUSH1 0x20 ADD PUSH0 KECCAK256 SLOAD SWAP1 POP PUSH0 DUP2 GT PUSH2 0x3D8 JUMPI PUSH1 0x40 MLOAD PUSH32 0x8C379A000000000000000000000000000000000000000000000000000000000 DUP2 MSTORE PUSH1 0x4 ADD PUSH2 0x3CF SWAP1 PUSH2 0xD90 JUMP JUMPDEST PUSH1 0x40 MLOAD DUP1 SWAP2 SUB SWAP1 REVERT JUMPDEST PUSH1 0x1 PUSH1 0x3 PUSH0 DUP6 DUP2 MSTORE PUSH1 0x20 ADD SWAP1 DUP2 MSTORE PUSH1 0x20 ADD PUSH0 KECCAK256 PUSH0 PUSH2 0x100 EXP DUP2 SLOAD DUP2 PUSH1 0xFF MUL NOT AND SWAP1 DUP4 ISZERO ISZERO MUL OR SWAP1 SSTORE POP PUSH0 PUSH1 0x2 PUSH0 DUP6 DUP2 MSTORE PUSH1 0x20 ADD SWAP1 DUP2 MSTORE PUSH1 0x20 ADD PUSH0 KECCAK256 DUP2 SWAP1 SSTORE POP PUSH0 DUP3 PUSH20 0xFFFFFFFFFFFFFFFFFFFFFFFFFFFFFFFFFFFFFFFF AND DUP3 PUSH1 0x40 MLOAD PUSH2 0x43C SWAP1 PUSH2 0xDDB JUMP JUMPDEST PUSH0 PUSH1 0x40 MLOAD DUP1 DUP4 SUB DUP2 DUP6 DUP8 GAS CALL SWAP3 POP POP POP RETURNDATASIZE DUP1 PUSH0 DUP2 EQ PUSH2 0x476 JUMPI PUSH1 0x40 MLOAD SWAP2 POP PUSH1 0x1F NOT PUSH1 0x3F RETURNDATASIZE ADD AND DUP3 ADD PUSH1 0x40 MSTORE RETURNDATASIZE DUP3 MSTORE RETURNDATASIZE PUSH0 PUSH1 0x20 DUP5 ADD RETURNDATACOPY PUSH2 0x47B JUMP JUMPDEST PUSH1 0x60 SWAP2 POP JUMPDEST POP POP SWAP1 POP DUP1 PUSH2 0x4BF JUMPI PUSH1 0x40 MLOAD PUSH32 0x8C379A000000000000000000000000000000000000000000000000000000000 DUP2 MSTORE PUSH1 0x4 ADD PUSH2 0x4B6 SWAP1 PUSH2 0xE39 JUMP JUMPDEST PUSH1 0x40 MLOAD DUP1 SWAP2 SUB SWAP1 REVERT JUMPDEST DUP3 PUSH20 0xFFFFFFFFFFFFFFFFFFFFFFFFFFFFFFFFFFFFFFFF AND DUP5 PUSH32 0x6E3C6096795C8298A218B2CFB8BDE42726FF7C9A3D27B4D3BA41AB7F74FEB5FB DUP5 PUSH1 0x40 MLOAD PUSH2 0x506 SWAP2 SWAP1 PUSH2 0xB83 JUMP JUMPDEST PUSH1 0x40 MLOAD DUP1 SWAP2 SUB SWAP1 LOG3 POP POP POP POP JUMP JUMPDEST PUSH1 0x1 PUSH0 SWAP1 SLOAD SWAP1 PUSH2 0x100 EXP SWAP1 DIV PUSH20 0xFFFFFFFFFFFFFFFFFFFFFFFFFFFFFFFFFFFFFFFF AND PUSH20 0xFFFFFFFFFFFFFFFFFFFFFFFFFFFFFFFFFFFFFFFF AND CALLER PUSH20 0xFFFFFFFFFFFFFFFFFFFFFFFFFFFFFFFFFFFFFFFF AND EQ PUSH2 0x5A3 JUMPI PUSH1 0x40 MLOAD PUSH32 0x8C379A000000000000000000000000000000000000000000000000000000000 DUP2 MSTORE PUSH1 0x4 ADD PUSH2 0x59A SWAP1 PUSH2 0xC0C JUMP JUMPDEST PUSH1 0x40 MLOAD DUP1 SWAP2 SUB SWAP1 REVERT JUMPDEST PUSH0 CALLVALUE GT PUSH2 0x5E5 JUMPI PUSH1 0x40 MLOAD PUSH32 0x8C379A000000000000000000000000000000000000000000000000000000000 DUP2 MSTORE PUSH1 0x4 ADD PUSH2 0x5DC SWAP1 PUSH2 0xEC7 JUMP JUMPDEST PUSH1 0x40 MLOAD DUP1 SWAP2 SUB SWAP1 REVERT JUMPDEST PUSH1 0x3 PUSH0 DUP3 DUP2 MSTORE PUSH1 0x20 ADD SWAP1 DUP2 MSTORE PUSH1 0x20 ADD PUSH0 KECCAK256 PUSH0 SWAP1 SLOAD SWAP1 PUSH2 0x100 EXP SWAP1 DIV PUSH1 0xFF AND ISZERO PUSH2 0x643 JUMPI PUSH1 0x40 MLOAD PUSH32 0x8C379A000000000000000000000000000000000000000000000000000000000 DUP2 MSTORE PUSH1 0x4 ADD PUSH2 0x63A SWAP1 PUSH2 0xD02 JUMP JUMPDEST PUSH1 0x40 MLOAD DUP1 SWAP2 SUB SWAP1 REVERT JUMPDEST CALLVALUE PUSH1 0x2 PUSH0 DUP4 DUP2 MSTORE PUSH1 0x20 ADD SWAP1 DUP2 MSTORE PUSH1 0x20 ADD PUSH0 KECCAK256 PUSH0 DUP3 DUP3 SLOAD PUSH2 0x663 SWAP2 SWAP1 PUSH2 0xF12 JUMP JUMPDEST SWAP3 POP POP DUP2 SWAP1 SSTORE POP DUP1 PUSH32 0x26679FA1F3868C950E9362F1106CF73F3318DE0280E0411A3C68E4B463EADD4F CALLVALUE PUSH1 0x40 MLOAD PUSH2 0x69A SWAP2 SWAP1 PUSH2 0xB83 JUMP JUMPDEST PUSH1 0x40 MLOAD DUP1 SWAP2 SUB SWAP1 LOG2 POP JUMP JUMPDEST PUSH0 PUSH0 SWAP1 SLOAD SWAP1 PUSH2 0x100 EXP SWAP1 DIV PUSH20 0xFFFFFFFFFFFFFFFFFFFFFFFFFFFFFFFFFFFFFFFF AND PUSH20 0xFFFFFFFFFFFFFFFFFFFFFFFFFFFFFFFFFFFFFFFF AND CALLER PUSH20 0xFFFFFFFFFFFFFFFFFFFFFFFFFFFFFFFFFFFFFFFF AND EQ PUSH2 0x733 JUMPI PUSH1 0x40 MLOAD PUSH32 0x8C379A000000000000000000000000000000000000000000000000000000000 DUP2 MSTORE PUSH1 0x4 ADD PUSH2 0x72A SWAP1 PUSH2 0xFB5 JUMP JUMPDEST PUSH1 0x40 MLOAD DUP1 SWAP2 SUB SWAP1 REVERT JUMPDEST PUSH0 PUSH20 0xFFFFFFFFFFFFFFFFFFFFFFFFFFFFFFFFFFFFFFFF AND DUP2 PUSH20 0xFFFFFFFFFFFFFFFFFFFFFFFFFFFFFFFFFFFFFFFF AND SUB PUSH2 0x7A1 JUMPI PUSH1 0x40 MLOAD PUSH32 0x8C379A000000000000000000000000000000000000000000000000000000000 DUP2 MSTORE PUSH1 0x4 ADD PUSH2 0x798 SWAP1 PUSH2 0x1043 JUMP JUMPDEST PUSH1 0x40 MLOAD DUP1 SWAP2 SUB SWAP1 REVERT JUMPDEST DUP1 PUSH1 0x1 PUSH0 PUSH2 0x100 EXP DUP2 SLOAD DUP2 PUSH20 0xFFFFFFFFFFFFFFFFFFFFFFFFFFFFFFFFFFFFFFFF MUL NOT AND SWAP1 DUP4 PUSH20 0xFFFFFFFFFFFFFFFFFFFFFFFFFFFFFFFFFFFFFFFF AND MUL OR SWAP1 SSTORE POP DUP1 PUSH20 0xFFFFFFFFFFFFFFFFFFFFFFFFFFFFFFFFFFFFFFFF AND PUSH32 0x6491C96E1537733A87C87454E5B4C875A5D385CEDDE992C8DF5817AB5A1995BC PUSH1 0x40 MLOAD PUSH1 0x40 MLOAD DUP1 SWAP2 SUB SWAP1 LOG2 POP JUMP JUMPDEST PUSH0 PUSH1 0x3 PUSH0 DUP4 DUP2 MSTORE PUSH1 0x20 ADD SWAP1 DUP2 MSTORE PUSH1 0x20 ADD PUSH0 KECCAK256 PUSH0 SWAP1 SLOAD SWAP1 PUSH2 0x100 EXP SWAP1 DIV PUSH1 0xFF AND SWAP1 POP SWAP2 SWAP1 POP JUMP JUMPDEST PUSH0 PUSH1 0x1 PUSH0 SWAP1 SLOAD SWAP1 PUSH2 0x100 EXP SWAP1 DIV PUSH20 0xFFFFFFFFFFFFFFFFFFFFFFFFFFFFFFFFFFFFFFFF AND SWAP1 POP SWAP1 JUMP JUMPDEST PUSH0 PUSH0 SWAP1 SLOAD SWAP1 PUSH2 0x100 EXP SWAP1 DIV PUSH20 0xFFFFFFFFFFFFFFFFFFFFFFFFFFFFFFFFFFFFFFFF AND DUP2 JUMP JUMPDEST PUSH0 PUSH1 0x2 PUSH0 DUP4 DUP2 MSTORE PUSH1 0x20 ADD SWAP1 DUP2 MSTORE PUSH1 0x20 ADD PUSH0 KECCAK256 SLOAD SWAP1 POP SWAP2 SWAP1 POP JUMP JUMPDEST PUSH0 DUP3 DUP3 MSTORE PUSH1 0x20 DUP3 ADD SWAP1 POP SWAP3 SWAP2 POP POP JUMP JUMPDEST PUSH32 0x557365206465706F73697446756E6473207468726F756768207468652063616D PUSH0 DUP3 ADD MSTORE PUSH32 0x706169676E20636F6E7472616374000000000000000000000000000000000000 PUSH1 0x20 DUP3 ADD MSTORE POP JUMP JUMPDEST PUSH0 PUSH2 0x91D PUSH1 0x2E DUP4 PUSH2 0x8B3 JUMP JUMPDEST SWAP2 POP PUSH2 0x928 DUP3 PUSH2 0x8C3 JUMP JUMPDEST PUSH1 0x40 DUP3 ADD SWAP1 POP SWAP2 SWAP1 POP JUMP JUMPDEST PUSH0 PUSH1 0x20 DUP3 ADD SWAP1 POP DUP2 DUP2 SUB PUSH0 DUP4 ADD MSTORE PUSH2 0x94A DUP2 PUSH2 0x911 JUMP JUMPDEST SWAP1 POP SWAP2 SWAP1 POP JUMP JUMPDEST PUSH32 0x496E76616C696420657363726F7720636F6E74726163742063616C6C00000000 PUSH0 DUP3 ADD MSTORE POP JUMP JUMPDEST PUSH0 PUSH2 0x985 PUSH1 0x1C DUP4 PUSH2 0x8B3 JUMP JUMPDEST SWAP2 POP PUSH2 0x990 DUP3 PUSH2 0x951 JUMP JUMPDEST PUSH1 0x20 DUP3 ADD SWAP1 POP SWAP2 SWAP1 POP JUMP JUMPDEST PUSH0 PUSH1 0x20 DUP3 ADD SWAP1 POP DUP2 DUP2 SUB PUSH0 DUP4 ADD MSTORE PUSH2 0x9B2 DUP2 PUSH2 0x979 JUMP JUMPDEST SWAP1 POP SWAP2 SWAP1 POP JUMP JUMPDEST PUSH0 PUSH0 REVERT JUMPDEST PUSH0 DUP2 SWAP1 POP SWAP2 SWAP1 POP JUMP JUMPDEST PUSH2 0x9CF DUP2 PUSH2 0x9BD JUMP JUMPDEST DUP2 EQ PUSH2 0x9D9 JUMPI PUSH0 PUSH0 REVERT JUMPDEST POP JUMP JUMPDEST PUSH0 DUP2 CALLDATALOAD SWAP1 POP PUSH2 0x9EA DUP2 PUSH2 0x9C6 JUMP JUMPDEST SWAP3 SWAP2 POP POP JUMP JUMPDEST PUSH0 PUSH20 0xFFFFFFFFFFFFFFFFFFFFFFFFFFFFFFFFFFFFFFFF DUP3 AND SWAP1 POP SWAP2 SWAP1 POP JUMP JUMPDEST PUSH0 PUSH2 0xA19 DUP3 PUSH2 0x9F0 JUMP JUMPDEST SWAP1 POP SWAP2 SWAP1 POP JUMP JUMPDEST PUSH2 0xA29 DUP2 PUSH2 0xA0F JUMP JUMPDEST DUP2 EQ PUSH2 0xA33 JUMPI PUSH0 PUSH0 REVERT JUMPDEST POP JUMP JUMPDEST PUSH0 DUP2 CALLDATALOAD SWAP1 POP PUSH2 0xA44 DUP2 PUSH2 0xA20 JUMP JUMPDEST SWAP3 SWAP2 POP POP JUMP JUMPDEST PUSH0 PUSH0 PUSH1 0x40 DUP4 DUP6 SUB SLT ISZERO PUSH2 0xA60 JUMPI PUSH2 0xA5F PUSH2 0x9B9 JUMP JUMPDEST JUMPDEST PUSH0 PUSH2 0xA6D DUP6 DUP3 DUP7 ADD PUSH2 0x9DC JUMP JUMPDEST SWAP3 POP POP PUSH1 0x20 PUSH2 0xA7E DUP6 DUP3 DUP7 ADD PUSH2 0xA36 JUMP JUMPDEST SWAP2 POP POP SWAP3 POP SWAP3 SWAP1 POP JUMP JUMPDEST PUSH0 PUSH1 0x20 DUP3 DUP5 SUB SLT ISZERO PUSH2 0xA9D JUMPI PUSH2 0xA9C PUSH2 0x9B9 JUMP JUMPDEST JUMPDEST PUSH0 PUSH2 0xAAA DUP5 DUP3 DUP6 ADD PUSH2 0x9DC JUMP JUMPDEST SWAP2 POP POP SWAP3 SWAP2 POP POP JUMP JUMPDEST PUSH0 PUSH2 0xABD DUP3 PUSH2 0x9F0 JUMP JUMPDEST SWAP1 POP SWAP2 SWAP1 POP JUMP JUMPDEST PUSH2 0xACD DUP2 PUSH2 0xAB3 JUMP JUMPDEST DUP2 EQ PUSH2 0xAD7 JUMPI PUSH0 PUSH0 REVERT JUMPDEST POP JUMP JUMPDEST PUSH0 DUP2 CALLDATALOAD SWAP1 POP PUSH2 0xAE8 DUP2 PUSH2 0xAC4 JUMP JUMPDEST SWAP3 SWAP2 POP POP JUMP JUMPDEST PUSH0 PUSH1 0x20 DUP3 DUP5 SUB SLT ISZERO PUSH2 0xB03 JUMPI PUSH2 0xB02 PUSH2 0x9B9 JUMP JUMPDEST JUMPDEST PUSH0 PUSH2 0xB10 DUP5 DUP3 DUP6 ADD PUSH2 0xADA JUMP JUMPDEST SWAP2 POP POP SWAP3 SWAP2 POP POP JUMP JUMPDEST PUSH0 DUP2 ISZERO ISZERO SWAP1 POP SWAP2 SWAP1 POP JUMP JUMPDEST PUSH2 0xB2D DUP2 PUSH2 0xB19 JUMP JUMPDEST DUP3 MSTORE POP POP JUMP JUMPDEST PUSH0 PUSH1 0x20 DUP3 ADD SWAP1 POP PUSH2 0xB46 PUSH0 DUP4 ADD DUP5 PUSH2 0xB24 JUMP JUMPDEST SWAP3 SWAP2 POP POP JUMP JUMPDEST PUSH2 0xB55 DUP2 PUSH2 0xAB3 JUMP JUMPDEST DUP3 MSTORE POP POP JUMP JUMPDEST PUSH0 PUSH1 0x20 DUP3 ADD SWAP1 POP PUSH2 0xB6E PUSH0 DUP4 ADD DUP5 PUSH2 0xB4C JUMP JUMPDEST SWAP3 SWAP2 POP POP JUMP JUMPDEST PUSH2 0xB7D DUP2 PUSH2 0x9BD JUMP JUMPDEST DUP3 MSTORE POP POP JUMP JUMPDEST PUSH0 PUSH1 0x20 DUP3 ADD SWAP1 POP PUSH2 0xB96 PUSH0 DUP4 ADD DUP5 PUSH2 0xB74 JUMP JUMPDEST SWAP3 SWAP2 POP POP JUMP JUMPDEST PUSH32 0x4F6E6C792063616D706169676E20636F6E74726163742063616E2063616C6C20 PUSH0 DUP3 ADD MSTORE PUSH32 0x746869732066756E6374696F6E00000000000000000000000000000000000000 PUSH1 0x20 DUP3 ADD MSTORE POP JUMP JUMPDEST PUSH0 PUSH2 0xBF6 PUSH1 0x2D DUP4 PUSH2 0x8B3 JUMP JUMPDEST SWAP2 POP PUSH2 0xC01 DUP3 PUSH2 0xB9C JUMP JUMPDEST PUSH1 0x40 DUP3 ADD SWAP1 POP SWAP2 SWAP1 POP JUMP JUMPDEST PUSH0 PUSH1 0x20 DUP3 ADD SWAP1 POP DUP2 DUP2 SUB PUSH0 DUP4 ADD MSTORE PUSH2 0xC23 DUP2 PUSH2 0xBEA JUMP JUMPDEST SWAP1 POP SWAP2 SWAP1 POP JUMP JUMPDEST PUSH32 0x4368617269747920616464726573732063616E6E6F74206265207A65726F0000 PUSH0 DUP3 ADD MSTORE POP JUMP JUMPDEST PUSH0 PUSH2 0xC5E PUSH1 0x1E DUP4 PUSH2 0x8B3 JUMP JUMPDEST SWAP2 POP PUSH2 0xC69 DUP3 PUSH2 0xC2A JUMP JUMPDEST PUSH1 0x20 DUP3 ADD SWAP1 POP SWAP2 SWAP1 POP JUMP JUMPDEST PUSH0 PUSH1 0x20 DUP3 ADD SWAP1 POP DUP2 DUP2 SUB PUSH0 DUP4 ADD MSTORE PUSH2 0xC8B DUP2 PUSH2 0xC52 JUMP JUMPDEST SWAP1 POP SWAP2 SWAP1 POP JUMP JUMPDEST PUSH32 0x46756E647320616C72656164792072656C656173656420666F72207468697320 PUSH0 DUP3 ADD MSTORE PUSH32 0x63616D706169676E000000000000000000000000000000000000000000000000 PUSH1 0x20 DUP3 ADD MSTORE POP JUMP JUMPDEST PUSH0 PUSH2 0xCEC PUSH1 0x28 DUP4 PUSH2 0x8B3 JUMP JUMPDEST SWAP2 POP PUSH2 0xCF7 DUP3 PUSH2 0xC92 JUMP JUMPDEST PUSH1 0x40 DUP3 ADD SWAP1 POP SWAP2 SWAP1 POP JUMP JUMPDEST PUSH0 PUSH1 0x20 DUP3 ADD SWAP1 POP DUP2 DUP2 SUB PUSH0 DUP4 ADD MSTORE PUSH2 0xD19 DUP2 PUSH2 0xCE0 JUMP JUMPDEST SWAP1 POP SWAP2 SWAP1 POP JUMP JUMPDEST PUSH32 0x4E6F2066756E647320617661696C61626C6520666F7220746869732063616D70 PUSH0 DUP3 ADD MSTORE PUSH32 0x6169676E00000000000000000000000000000000000000000000000000000000 PUSH1 0x20 DUP3 ADD MSTORE POP JUMP JUMPDEST PUSH0 PUSH2 0xD7A PUSH1 0x24 DUP4 PUSH2 0x8B3 JUMP JUMPDEST SWAP2 POP PUSH2 0xD85 DUP3 PUSH2 0xD20 JUMP JUMPDEST PUSH1 0x40 DUP3 ADD SWAP1 POP SWAP2 SWAP1 POP JUMP JUMPDEST PUSH0 PUSH1 0x20 DUP3 ADD SWAP1 POP DUP2 DUP2 SUB PUSH0 DUP4 ADD MSTORE PUSH2 0xDA7 DUP2 PUSH2 0xD6E JUMP JUMPDEST SWAP1 POP SWAP2 SWAP1 POP JUMP JUMPDEST PUSH0 DUP2 SWAP1 POP SWAP3 SWAP2 POP POP JUMP JUMPDEST POP JUMP JUMPDEST PUSH0 PUSH2 0xDC6 PUSH0 DUP4 PUSH2 0xDAE JUMP JUMPDEST SWAP2 POP PUSH2 0xDD1 DUP3 PUSH2 0xDB8 JUMP JUMPDEST PUSH0 DUP3 ADD SWAP1 POP SWAP2 SWAP1 POP JUMP JUMPDEST PUSH0 PUSH2 0xDE5 DUP3 PUSH2 0xDBB JUMP JUMPDEST SWAP2 POP DUP2 SWAP1 POP SWAP2 SWAP1 POP JUMP JUMPDEST PUSH32 0x455448207472616E7366657220746F2063686172697479206661696C65640000 PUSH0 DUP3 ADD MSTORE POP JUMP JUMPDEST PUSH0 PUSH2 0xE23 PUSH1 0x1E DUP4 PUSH2 0x8B3 JUMP JUMPDEST SWAP2 POP PUSH2 0xE2E DUP3 PUSH2 0xDEF JUMP JUMPDEST PUSH1 0x20 DUP3 ADD SWAP1 POP SWAP2 SWAP1 POP JUMP JUMPDEST PUSH0 PUSH1 0x20 DUP3 ADD SWAP1 POP DUP2 DUP2 SUB PUSH0 DUP4 ADD MSTORE PUSH2 0xE50 DUP2 PUSH2 0xE17 JUMP JUMPDEST SWAP1 POP SWAP2 SWAP1 POP JUMP JUMPDEST PUSH32 0x4465706F73697420616D6F756E74206D75737420626520677265617465722074 PUSH0 DUP3 ADD MSTORE PUSH32 0x68616E207A65726F000000000000000000000000000000000000000000000000 PUSH1 0x20 DUP3 ADD MSTORE POP JUMP JUMPDEST PUSH0 PUSH2 0xEB1 PUSH1 0x28 DUP4 PUSH2 0x8B3 JUMP JUMPDEST SWAP2 POP PUSH2 0xEBC DUP3 PUSH2 0xE57 JUMP JUMPDEST PUSH1 0x40 DUP3 ADD SWAP1 POP SWAP2 SWAP1 POP JUMP JUMPDEST PUSH0 PUSH1 0x20 DUP3 ADD SWAP1 POP DUP2 DUP2 SUB PUSH0 DUP4 ADD MSTORE PUSH2 0xEDE DUP2 PUSH2 0xEA5 JUMP JUMPDEST SWAP1 POP SWAP2 SWAP1 POP JUMP JUMPDEST PUSH32 0x4E487B7100000000000000000000000000000000000000000000000000000000 PUSH0 MSTORE PUSH1 0x11 PUSH1 0x4 MSTORE PUSH1 0x24 PUSH0 REVERT JUMPDEST PUSH0 PUSH2 0xF1C DUP3 PUSH2 0x9BD JUMP JUMPDEST SWAP2 POP PUSH2 0xF27 DUP4 PUSH2 0x9BD JUMP JUMPDEST SWAP3 POP DUP3 DUP3 ADD SWAP1 POP DUP1 DUP3 GT ISZERO PUSH2 0xF3F JUMPI PUSH2 0xF3E PUSH2 0xEE5 JUMP JUMPDEST JUMPDEST SWAP3 SWAP2 POP POP JUMP JUMPDEST PUSH32 0x4F6E6C792061646D696E2063616E2063616C6C20746869732066756E6374696F PUSH0 DUP3 ADD MSTORE PUSH32 0x6E00000000000000000000000000000000000000000000000000000000000000 PUSH1 0x20 DUP3 ADD MSTORE POP JUMP JUMPDEST PUSH0 PUSH2 0xF9F PUSH1 0x21 DUP4 PUSH2 0x8B3 JUMP JUMPDEST SWAP2 POP PUSH2 0xFAA DUP3 PUSH2 0xF45 JUMP JUMPDEST PUSH1 0x40 DUP3 ADD SWAP1 POP SWAP2 SWAP1 POP JUMP JUMPDEST PUSH0 PUSH1 0x20 DUP3 ADD SWAP1 POP DUP2 DUP2 SUB PUSH0 DUP4 ADD MSTORE PUSH2 0xFCC DUP2 PUSH2 0xF93 JUMP JUMPDEST SWAP1 POP SWAP2 SWAP1 POP JUMP JUMPDEST PUSH32 0x43616D706169676E20636F6E747261637420616464726573732063616E6E6F74 PUSH0 DUP3 ADD MSTORE PUSH32 0x206265207A65726F000000000000000000000000000000000000000000000000 PUSH1 0x20 DUP3 ADD MSTORE POP JUMP JUMPDEST PUSH0 PUSH2 0x102D PUSH1 0x28 DUP4 PUSH2 0x8B3 JUMP JUMPDEST SWAP2 POP PUSH2 0x1038 DUP3 PUSH2 0xFD3 JUMP JUMPDEST PUSH1 0x40 DUP3 ADD SWAP1 POP SWAP2 SWAP1 POP JUMP JUMPDEST PUSH0 PUSH1 0x20 DUP3 ADD SWAP1 POP DUP2 DUP2 SUB PUSH0 DUP4 ADD MSTORE PUSH2 0x105A DUP2 PUSH2 0x1021 JUMP JUMPDEST SWAP1 POP SWAP2 SWAP1 POP JUMP INVALID LOG2 PUSH5 0x6970667358 0x22 SLT KECCAK256 PUSH27 0x821FA044FA197FBB9197586DFDF2D2701124200C6D4664ADC73094 0xF 0xD2 0xB2 ADDMOD PUSH5 0x736F6C6343 STOP ADDMOD 0x1E STOP CALLER "
				},
				"gasEstimates": {
					"creation": {
						"codeDepositCost": "849400",
						"executionCost": "25145",
						"totalCost": "874545"
					},
					"external": {
						"": "445",
						"admin()": "2551",
						"depositFunds(uint256)": "infinite",
						"getCampaignContractAddress()": "2537",
						"getEscrowBalance(uint256)": "infinite",
						"isReleased(uint256)": "2810",
						"releaseFunds(uint256,address)": "infinite",
						"setCampaignContract(address)": "28123"
					}
				},
				"methodIdentifiers": {
					"admin()": "f851a440",
					"depositFunds(uint256)": "3b76594d",
					"getCampaignContractAddress()": "8e98f44d",
					"getEscrowBalance(uint256)": "fce60903",
					"isReleased(uint256)": "73962b26",
					"releaseFunds(uint256,address)": "1af23a59",
					"setCampaignContract(address)": "669be2d6"
				}
			},
			"storageLayout": {
				"storage": [
					{
						"astId": 4,
						"contract": "MilestoneEscrowContract.sol:MilestoneEscrowContract",
						"label": "admin",
						"offset": 0,
						"slot": "0",
						"type": "t_address"
					},
					{
						"astId": 6,
						"contract": "MilestoneEscrowContract.sol:MilestoneEscrowContract",
						"label": "campaignContract",
						"offset": 0,
						"slot": "1",
						"type": "t_address"
					},
					{
						"astId": 10,
						"contract": "MilestoneEscrowContract.sol:MilestoneEscrowContract",
						"label": "escrowBalances",
						"offset": 0,
						"slot": "2",
						"type": "t_mapping(t_uint256,t_uint256)"
					},
					{
						"astId": 14,
						"contract": "MilestoneEscrowContract.sol:MilestoneEscrowContract",
						"label": "released",
						"offset": 0,
						"slot": "3",
						"type": "t_mapping(t_uint256,t_bool)"
					}
				],
				"types": {
					"t_address": {
						"encoding": "inplace",
						"label": "address",
						"numberOfBytes": "20"
					},
					"t_bool": {
						"encoding": "inplace",
						"label": "bool",
						"numberOfBytes": "1"
					},
					"t_mapping(t_uint256,t_bool)": {
						"encoding": "mapping",
						"key": "t_uint256",
						"label": "mapping(uint256 => bool)",
						"numberOfBytes": "32",
						"value": "t_bool"
					},
					"t_mapping(t_uint256,t_uint256)": {
						"encoding": "mapping",
						"key": "t_uint256",
						"label": "mapping(uint256 => uint256)",
						"numberOfBytes": "32",
						"value": "t_uint256"
					},
					"t_uint256": {
						"encoding": "inplace",
						"label": "uint256",
						"numberOfBytes": "32"
					}
				}
			},
			"userdoc": {
				"kind": "user",
				"methods": {},
				"version": 1
			}
		}
	}
}